{
  "contractName": "Contract",
  "abi": [
    {
      "inputs": [
        {
          "internalType": "uint256",
          "name": "base",
          "type": "uint256"
        },
        {
          "internalType": "uint256",
          "name": "exponent",
          "type": "uint256"
        }
      ],
      "name": "calculatePower",
      "outputs": [
        {
          "internalType": "uint256",
          "name": "",
          "type": "uint256"
        }
      ],
      "stateMutability": "pure",
      "type": "function"
    }
  ],
  "bytecode": "0x608060405234801561001057600080fd5b5061023b806100206000396000f3fe608060405234801561001057600080fd5b506004361061002b5760003560e01c8063f979f26914610030575b600080fd5b61004a60048036038101906100459190610121565b610060565b6040516100579190610170565b60405180910390f35b60008273__Math__________________________________63c04f01fc9091846040518363ffffffff1660e01b815260040161009d92919061019a565b602060405180830381865af41580156100ba573d6000803e3d6000fd5b505050506040513d601f19601f820116820180604052508101906100de91906101d8565b905092915050565b600080fd5b6000819050919050565b6100fe816100eb565b811461010957600080fd5b50565b60008135905061011b816100f5565b92915050565b60008060408385031215610138576101376100e6565b5b60006101468582860161010c565b92505060206101578582860161010c565b9150509250929050565b61016a816100eb565b82525050565b60006020820190506101856000830184610161565b92915050565b610194816100eb565b82525050565b60006040820190506101af600083018561018b565b6101bc602083018461018b565b9392505050565b6000815190506101d2816100f5565b92915050565b6000602082840312156101ee576101ed6100e6565b5b60006101fc848285016101c3565b9150509291505056fea2646970667358221220dd280df78ab470d18960d978015a8408773cc7f2b67c2fd03d488a03481d15ae64736f6c634300080d0033",
  "immutableReferences": {},
  "source": "// SPDX-License-Identifier: MIT\r\npragma solidity ^0.8.0;\r\n\r\n/**\r\n * @title Math\r\n * @dev External library for mathematical operations.\r\n */\r\nlibrary Math {\r\n    /**\r\n     * @dev Function to calculate the power of a number.\r\n     * @param base The base number.\r\n     * @param exponent The exponent.\r\n     * @return The result of base raised to the power of exponent.\r\n     */\r\n    function power(uint256 base, uint256 exponent) external pure returns (uint256) {\r\n        uint256 result = 1;\r\n        for (uint256 i = 0; i < exponent; i++) {\r\n            result *= base;\r\n        }\r\n        return result;\r\n    }\r\n}\r\n\r\n/**\r\n * @title Contract\r\n * @dev Contract that uses the Math library for power calculation.\r\n */\r\ncontract Contract {\r\n    // Importing the Math library\r\n    using Math for uint256;\r\n\r\n    /**\r\n     * @dev Function that uses the power function from the Math library.\r\n     * @param base The base number.\r\n     * @param exponent The exponent.\r\n     * @return The result of base raised to the power of exponent.\r\n     */\r\n    function calculatePower(uint256 base, uint256 exponent) public pure returns (uint256) {\r\n        return base.power(exponent);\r\n    }\r\n}\r\n",
  "sourcePath": "Z:\\ADS\\thechaincademy-course\\backend\\contracts\\Library.sol",
  "compiler": {
    "name": "solc",
    "version": "0.8.13+commit.abaa5c0e.Emscripten.clang"
  },
  "schemaVersion": "3.4.16",
  "updatedAt": "2024-04-04T23:26:50.977Z",
  "devdoc": {
    "details": "Contract that uses the Math library for power calculation.",
    "kind": "dev",
    "methods": {
      "calculatePower(uint256,uint256)": {
        "details": "Function that uses the power function from the Math library.",
        "params": {
          "base": "The base number.",
          "exponent": "The exponent."
        },
        "returns": {
          "_0": "The result of base raised to the power of exponent."
        }
      }
    },
    "title": "Contract",
    "version": 1
  },
  "userdoc": {
    "kind": "user",
    "methods": {},
    "version": 1
  }
}