{
  "contractName": "CRUDContract",
  "abi": [
    {
      "anonymous": false,
      "inputs": [
        {
          "indexed": false,
          "internalType": "uint256",
          "name": "id",
          "type": "uint256"
        },
        {
          "indexed": false,
          "internalType": "string",
          "name": "name",
          "type": "string"
        }
      ],
      "name": "ItemCreated",
      "type": "event"
    },
    {
      "anonymous": false,
      "inputs": [
        {
          "indexed": false,
          "internalType": "uint256",
          "name": "id",
          "type": "uint256"
        }
      ],
      "name": "ItemDeleted",
      "type": "event"
    },
    {
      "anonymous": false,
      "inputs": [
        {
          "indexed": false,
          "internalType": "uint256",
          "name": "id",
          "type": "uint256"
        },
        {
          "indexed": false,
          "internalType": "string",
          "name": "newName",
          "type": "string"
        }
      ],
      "name": "ItemUpdated",
      "type": "event"
    },
    {
      "inputs": [
        {
          "internalType": "uint256",
          "name": "",
          "type": "uint256"
        }
      ],
      "name": "items",
      "outputs": [
        {
          "internalType": "uint256",
          "name": "id",
          "type": "uint256"
        },
        {
          "internalType": "string",
          "name": "name",
          "type": "string"
        }
      ],
      "stateMutability": "view",
      "type": "function",
      "constant": true
    },
    {
      "inputs": [],
      "name": "nextId",
      "outputs": [
        {
          "internalType": "uint256",
          "name": "",
          "type": "uint256"
        }
      ],
      "stateMutability": "view",
      "type": "function",
      "constant": true
    },
    {
      "inputs": [
        {
          "internalType": "string",
          "name": "_name",
          "type": "string"
        }
      ],
      "name": "createItem",
      "outputs": [],
      "stateMutability": "nonpayable",
      "type": "function"
    },
    {
      "inputs": [
        {
          "internalType": "uint256",
          "name": "_id",
          "type": "uint256"
        }
      ],
      "name": "readItem",
      "outputs": [
        {
          "components": [
            {
              "internalType": "uint256",
              "name": "id",
              "type": "uint256"
            },
            {
              "internalType": "string",
              "name": "name",
              "type": "string"
            }
          ],
          "internalType": "struct CRUDContract.Item",
          "name": "",
          "type": "tuple"
        }
      ],
      "stateMutability": "view",
      "type": "function",
      "constant": true
    },
    {
      "inputs": [
        {
          "internalType": "uint256",
          "name": "_id",
          "type": "uint256"
        },
        {
          "internalType": "string",
          "name": "_newName",
          "type": "string"
        }
      ],
      "name": "updateItem",
      "outputs": [],
      "stateMutability": "nonpayable",
      "type": "function"
    },
    {
      "inputs": [
        {
          "internalType": "uint256",
          "name": "_id",
          "type": "uint256"
        }
      ],
      "name": "deleteItem",
      "outputs": [],
      "stateMutability": "nonpayable",
      "type": "function"
    }
  ],
  "bytecode": "0x60806040526001805534801561001457600080fd5b50610cd7806100246000396000f3fe608060405234801561001057600080fd5b50600436106100625760003560e01c80633d54eebb1461006757806361b8ce8c14610083578063654fc833146100a1578063838b96bd146100bd578063b065b2a9146100ed578063bfb231d214610109575b600080fd5b610081600480360381019061007c919061088d565b61013a565b005b61008b6101fb565b60405161009891906108ef565b60405180910390f35b6100bb60048036038101906100b69190610936565b610201565b005b6100d760048036038101906100d29190610936565b610309565b6040516100e49190610a37565b60405180910390f35b61010760048036038101906101029190610a59565b610472565b005b610123600480360381019061011e9190610936565b61057a565b604051610131929190610aff565b60405180910390f35b6000604051806040016040528060015481526020018381525090806001815401808255809150506001900390600052602060002090600202016000909190919091506000820151816000015560208201518160010190805190602001906101a2929190610636565b5050507f2931fd16a2d011bf618da74e9fc397f94aa1807d8916289525a36f0a7d2f1294600154826040516101d8929190610aff565b60405180910390a1600160008154809291906101f390610b5e565b919050555050565b60015481565b60005b6000805490508110156102ca57816000828154811061022657610225610ba6565b5b906000526020600020906002020160000154036102b7577f3d0be3a3bbdb36b253d40a546d15d6b7f402fc43e4cd4a067af359b0763b6f3c8260405161026c91906108ef565b60405180910390a16000818154811061028857610287610ba6565b5b90600052602060002090600202016000808201600090556001820160006102af91906106bc565b505050610306565b80806102c290610b5e565b915050610204565b506040517f08c379a00000000000000000000000000000000000000000000000000000000081526004016102fd90610c21565b60405180910390fd5b50565b6103116106fc565b60005b60008054905081101561043157826000828154811061033657610335610ba6565b5b9060005260206000209060020201600001540361041e576000818154811061036157610360610ba6565b5b90600052602060002090600202016040518060400160405290816000820154815260200160018201805461039490610c70565b80601f01602080910402602001604051908101604052809291908181526020018280546103c090610c70565b801561040d5780601f106103e25761010080835404028352916020019161040d565b820191906000526020600020905b8154815290600101906020018083116103f057829003601f168201915b50505050508152505091505061046d565b808061042990610b5e565b915050610314565b506040517f08c379a000000000000000000000000000000000000000000000000000000000815260040161046490610c21565b60405180910390fd5b919050565b60005b60008054905081101561053a57826000828154811061049757610496610ba6565b5b906000526020600020906002020160000154036105275781600082815481106104c3576104c2610ba6565b5b906000526020600020906002020160010190805190602001906104e7929190610636565b507f05ad83eb7e1e6629066376a2a3f7f15de656ae2813f24b3cfa3a0a051bd0f3b38383604051610519929190610aff565b60405180910390a150610576565b808061053290610b5e565b915050610475565b506040517f08c379a000000000000000000000000000000000000000000000000000000000815260040161056d90610c21565b60405180910390fd5b5050565b6000818154811061058a57600080fd5b90600052602060002090600202016000915090508060000154908060010180546105b390610c70565b80601f01602080910402602001604051908101604052809291908181526020018280546105df90610c70565b801561062c5780601f106106015761010080835404028352916020019161062c565b820191906000526020600020905b81548152906001019060200180831161060f57829003601f168201915b5050505050905082565b82805461064290610c70565b90600052602060002090601f01602090048101928261066457600085556106ab565b82601f1061067d57805160ff19168380011785556106ab565b828001600101855582156106ab579182015b828111156106aa57825182559160200191906001019061068f565b5b5090506106b89190610716565b5090565b5080546106c890610c70565b6000825580601f106106da57506106f9565b601f0160209004906000526020600020908101906106f89190610716565b5b50565b604051806040016040528060008152602001606081525090565b5b8082111561072f576000816000905550600101610717565b5090565b6000604051905090565b600080fd5b600080fd5b600080fd5b600080fd5b6000601f19601f8301169050919050565b7f4e487b7100000000000000000000000000000000000000000000000000000000600052604160045260246000fd5b61079a82610751565b810181811067ffffffffffffffff821117156107b9576107b8610762565b5b80604052505050565b60006107cc610733565b90506107d88282610791565b919050565b600067ffffffffffffffff8211156107f8576107f7610762565b5b61080182610751565b9050602081019050919050565b82818337600083830152505050565b600061083061082b846107dd565b6107c2565b90508281526020810184848401111561084c5761084b61074c565b5b61085784828561080e565b509392505050565b600082601f83011261087457610873610747565b5b813561088484826020860161081d565b91505092915050565b6000602082840312156108a3576108a261073d565b5b600082013567ffffffffffffffff8111156108c1576108c0610742565b5b6108cd8482850161085f565b91505092915050565b6000819050919050565b6108e9816108d6565b82525050565b600060208201905061090460008301846108e0565b92915050565b610913816108d6565b811461091e57600080fd5b50565b6000813590506109308161090a565b92915050565b60006020828403121561094c5761094b61073d565b5b600061095a84828501610921565b91505092915050565b61096c816108d6565b82525050565b600081519050919050565b600082825260208201905092915050565b60005b838110156109ac578082015181840152602081019050610991565b838111156109bb576000848401525b50505050565b60006109cc82610972565b6109d6818561097d565b93506109e681856020860161098e565b6109ef81610751565b840191505092915050565b6000604083016000830151610a126000860182610963565b5060208301518482036020860152610a2a82826109c1565b9150508091505092915050565b60006020820190508181036000830152610a5181846109fa565b905092915050565b60008060408385031215610a7057610a6f61073d565b5b6000610a7e85828601610921565b925050602083013567ffffffffffffffff811115610a9f57610a9e610742565b5b610aab8582860161085f565b9150509250929050565b600082825260208201905092915050565b6000610ad182610972565b610adb8185610ab5565b9350610aeb81856020860161098e565b610af481610751565b840191505092915050565b6000604082019050610b1460008301856108e0565b8181036020830152610b268184610ac6565b90509392505050565b7f4e487b7100000000000000000000000000000000000000000000000000000000600052601160045260246000fd5b6000610b69826108d6565b91507fffffffffffffffffffffffffffffffffffffffffffffffffffffffffffffffff8203610b9b57610b9a610b2f565b5b600182019050919050565b7f4e487b7100000000000000000000000000000000000000000000000000000000600052603260045260246000fd5b7f4974656d206e6f7420666f756e64000000000000000000000000000000000000600082015250565b6000610c0b600e83610ab5565b9150610c1682610bd5565b602082019050919050565b60006020820190508181036000830152610c3a81610bfe565b9050919050565b7f4e487b7100000000000000000000000000000000000000000000000000000000600052602260045260246000fd5b60006002820490506001821680610c8857607f821691505b602082108103610c9b57610c9a610c41565b5b5091905056fea26469706673582212209fc8bd5557bae97b9666e66c173d6278d5847c9d1de3db7a82785f032e8abc2364736f6c634300080d0033",
  "immutableReferences": {},
  "source": "// SPDX-License-Identifier: MIT\r\npragma solidity ^0.8.0;\r\n\r\n/**\r\n * @title CRUDContract\r\n * @dev A simple CRUD (Create, Read, Update, Delete) contract for managing items.\r\n */\r\ncontract CRUDContract {\r\n    // Struct to represent an item\r\n    struct Item {\r\n        uint id;    // Unique identifier for the item\r\n        string name;    // Name of the item\r\n    }\r\n\r\n    // Array to store all items\r\n    Item[] public items;\r\n\r\n    // Counter for generating unique IDs for new items\r\n    uint public nextId = 1;\r\n\r\n    // Events emitted for various CRUD operations\r\n    event ItemCreated(uint id, string name);\r\n    event ItemUpdated(uint id, string newName);\r\n    event ItemDeleted(uint id);\r\n\r\n    /**\r\n     * @dev Creates a new item with the given name.\r\n     * @param _name The name of the item to create.\r\n     */\r\n    function createItem(string memory _name) public {\r\n        items.push(Item(nextId, _name));\r\n        emit ItemCreated(nextId, _name);\r\n        nextId++;\r\n    }\r\n\r\n    /**\r\n     * @dev Retrieves the details of an item by its ID.\r\n     * @param _id The ID of the item to read.\r\n     * @return The details of the item (ID and name).\r\n     */\r\n    function readItem(uint _id) public view returns (Item memory) {\r\n        for (uint i = 0; i < items.length; i++) {\r\n            if (items[i].id == _id) {\r\n                return items[i];\r\n            }\r\n        }\r\n        revert(\"Item not found\");\r\n    }\r\n\r\n    /**\r\n     * @dev Updates the name of an existing item.\r\n     * @param _id The ID of the item to update.\r\n     * @param _newName The new name for the item.\r\n     */\r\n    function updateItem(uint _id, string memory _newName) public {\r\n        for (uint i = 0; i < items.length; i++) {\r\n            if (items[i].id == _id) {\r\n                items[i].name = _newName;\r\n                emit ItemUpdated(_id, _newName);\r\n                return;\r\n            }\r\n        }\r\n        revert(\"Item not found\");\r\n    }\r\n\r\n    /**\r\n     * @dev Deletes an existing item by its ID.\r\n     * @param _id The ID of the item to delete.\r\n     */\r\n    function deleteItem(uint _id) public {\r\n        for (uint i = 0; i < items.length; i++) {\r\n            if (items[i].id == _id) {\r\n                emit ItemDeleted(_id);\r\n                delete items[i];\r\n                return;\r\n            }\r\n        }\r\n        revert(\"Item not found\");\r\n    }\r\n}\r\n",
  "sourcePath": "Z:\\ADS\\thechaincademy-course\\backend\\contracts\\CRUDContract.sol",
  "compiler": {
    "name": "solc",
    "version": "0.8.13+commit.abaa5c0e.Emscripten.clang"
  },
  "schemaVersion": "3.4.16",
  "updatedAt": "2024-04-04T23:26:58.158Z",
  "networkType": "ethereum",
  "devdoc": {
    "details": "A simple CRUD (Create, Read, Update, Delete) contract for managing items.",
    "kind": "dev",
    "methods": {
      "createItem(string)": {
        "details": "Creates a new item with the given name.",
        "params": {
          "_name": "The name of the item to create."
        }
      },
      "deleteItem(uint256)": {
        "details": "Deletes an existing item by its ID.",
        "params": {
          "_id": "The ID of the item to delete."
        }
      },
      "readItem(uint256)": {
        "details": "Retrieves the details of an item by its ID.",
        "params": {
          "_id": "The ID of the item to read."
        },
        "returns": {
          "_0": "The details of the item (ID and name)."
        }
      },
      "updateItem(uint256,string)": {
        "details": "Updates the name of an existing item.",
        "params": {
          "_id": "The ID of the item to update.",
          "_newName": "The new name for the item."
        }
      }
    },
    "title": "CRUDContract",
    "version": 1
  },
  "userdoc": {
    "kind": "user",
    "methods": {},
    "version": 1
  }
}