{
  "contractName": "Math",
  "abi": [
    {
      "inputs": [
        {
          "internalType": "uint256",
          "name": "base",
          "type": "uint256"
        },
        {
          "internalType": "uint256",
          "name": "exponent",
          "type": "uint256"
        }
      ],
      "name": "power",
      "outputs": [
        {
          "internalType": "uint256",
          "name": "",
          "type": "uint256"
        }
      ],
      "stateMutability": "pure",
      "type": "function"
    }
  ],
  "bytecode": "0x610254610053600b82828239805160001a607314610046577f4e487b7100000000000000000000000000000000000000000000000000000000600052600060045260246000fd5b30600052607381538281f3fe73000000000000000000000000000000000000000030146080604052600436106100355760003560e01c8063c04f01fc1461003a575b600080fd5b610054600480360381019061004f91906100e3565b61006a565b6040516100619190610132565b60405180910390f35b6000806001905060005b8381101561009d578482610088919061017c565b91508080610095906101d6565b915050610074565b508091505092915050565b600080fd5b6000819050919050565b6100c0816100ad565b81146100cb57600080fd5b50565b6000813590506100dd816100b7565b92915050565b600080604083850312156100fa576100f96100a8565b5b6000610108858286016100ce565b9250506020610119858286016100ce565b9150509250929050565b61012c816100ad565b82525050565b60006020820190506101476000830184610123565b92915050565b7f4e487b7100000000000000000000000000000000000000000000000000000000600052601160045260246000fd5b6000610187826100ad565b9150610192836100ad565b9250817fffffffffffffffffffffffffffffffffffffffffffffffffffffffffffffffff04831182151516156101cb576101ca61014d565b5b828202905092915050565b60006101e1826100ad565b91507fffffffffffffffffffffffffffffffffffffffffffffffffffffffffffffffff82036102135761021261014d565b5b60018201905091905056fea26469706673582212201fa8045ea028bca228b3b554a0fda409293c5ec1e14bdf3ea5638c9543d856a164736f6c634300080d0033",
  "immutableReferences": {},
  "source": "// SPDX-License-Identifier: MIT\r\npragma solidity ^0.8.0;\r\n\r\n// Declarao da biblioteca externa\r\nlibrary Math {\r\n    // Funo para calcular a potncia de um nmero\r\n    function power(uint256 base, uint256 exponent) external pure returns (uint256) {\r\n        uint256 result = 1;\r\n        for (uint256 i = 0; i < exponent; i++) {\r\n            result *= base;\r\n        }\r\n        return result;\r\n    }\r\n}\r\n\r\n// Contrato que utiliza a biblioteca externa\r\ncontract Contract {\r\n    // Importao da biblioteca externa\r\n    using Math for uint256;\r\n\r\n    // Funo que utiliza a funo power da biblioteca externa\r\n    function calculatePower(uint256 base, uint256 exponent) public pure returns (uint256) {\r\n        return base.power(exponent);\r\n    }\r\n}\r\n",
  "sourcePath": "Z:\\ADS\\thechaincademy-course\\backend\\contracts\\library.sol",
  "compiler": {
    "name": "solc",
    "version": "0.8.13+commit.abaa5c0e.Emscripten.clang"
  },
  "schemaVersion": "3.4.16",
  "updatedAt": "2024-04-03T23:27:24.483Z",
  "devdoc": {
    "kind": "dev",
    "methods": {},
    "version": 1
  },
  "userdoc": {
    "kind": "user",
    "methods": {},
    "version": 1
  }
}