{
  "contractName": "Math",
  "abi": [
    {
      "inputs": [
        {
          "internalType": "uint256",
          "name": "base",
          "type": "uint256"
        },
        {
          "internalType": "uint256",
          "name": "exponent",
          "type": "uint256"
        }
      ],
      "name": "power",
      "outputs": [
        {
          "internalType": "uint256",
          "name": "",
          "type": "uint256"
        }
      ],
      "stateMutability": "pure",
      "type": "function"
    }
  ],
  "bytecode": "0x610254610053600b82828239805160001a607314610046577f4e487b7100000000000000000000000000000000000000000000000000000000600052600060045260246000fd5b30600052607381538281f3fe73000000000000000000000000000000000000000030146080604052600436106100355760003560e01c8063c04f01fc1461003a575b600080fd5b610054600480360381019061004f91906100e3565b61006a565b6040516100619190610132565b60405180910390f35b6000806001905060005b8381101561009d578482610088919061017c565b91508080610095906101d6565b915050610074565b508091505092915050565b600080fd5b6000819050919050565b6100c0816100ad565b81146100cb57600080fd5b50565b6000813590506100dd816100b7565b92915050565b600080604083850312156100fa576100f96100a8565b5b6000610108858286016100ce565b9250506020610119858286016100ce565b9150509250929050565b61012c816100ad565b82525050565b60006020820190506101476000830184610123565b92915050565b7f4e487b7100000000000000000000000000000000000000000000000000000000600052601160045260246000fd5b6000610187826100ad565b9150610192836100ad565b9250817fffffffffffffffffffffffffffffffffffffffffffffffffffffffffffffffff04831182151516156101cb576101ca61014d565b5b828202905092915050565b60006101e1826100ad565b91507fffffffffffffffffffffffffffffffffffffffffffffffffffffffffffffffff82036102135761021261014d565b5b60018201905091905056fea264697066735822122034c77ad606e6fac6684a8eaeb2f73467318fc80334b756792eb3315cc2f140d664736f6c634300080d0033",
  "immutableReferences": {},
  "source": "// SPDX-License-Identifier: MIT\r\npragma solidity ^0.8.0;\r\n\r\n/**\r\n * @title Math\r\n * @dev External library for mathematical operations.\r\n */\r\nlibrary Math {\r\n    /**\r\n     * @dev Function to calculate the power of a number.\r\n     * @param base The base number.\r\n     * @param exponent The exponent.\r\n     * @return The result of base raised to the power of exponent.\r\n     */\r\n    function power(uint256 base, uint256 exponent) external pure returns (uint256) {\r\n        uint256 result = 1;\r\n        for (uint256 i = 0; i < exponent; i++) {\r\n            result *= base;\r\n        }\r\n        return result;\r\n    }\r\n}\r\n\r\n/**\r\n * @title Contract\r\n * @dev Contract that uses the Math library for power calculation.\r\n */\r\ncontract Contract {\r\n    // Importing the Math library\r\n    using Math for uint256;\r\n\r\n    /**\r\n     * @dev Function that uses the power function from the Math library.\r\n     * @param base The base number.\r\n     * @param exponent The exponent.\r\n     * @return The result of base raised to the power of exponent.\r\n     */\r\n    function calculatePower(uint256 base, uint256 exponent) public pure returns (uint256) {\r\n        return base.power(exponent);\r\n    }\r\n}\r\n",
  "sourcePath": "Z:\\ADS\\thechaincademy-course\\backend\\contracts\\Library.sol",
  "compiler": {
    "name": "solc",
    "version": "0.8.13+commit.abaa5c0e.Emscripten.clang"
  },
  "schemaVersion": "3.4.16",
  "updatedAt": "2024-04-04T23:26:50.980Z",
  "devdoc": {
    "details": "External library for mathematical operations.",
    "kind": "dev",
    "methods": {
      "power(uint256,uint256)": {
        "details": "Function to calculate the power of a number.",
        "params": {
          "base": "The base number.",
          "exponent": "The exponent."
        },
        "returns": {
          "_0": "The result of base raised to the power of exponent."
        }
      }
    },
    "title": "Math",
    "version": 1
  },
  "userdoc": {
    "kind": "user",
    "methods": {},
    "version": 1
  }
}