{
  "contractName": "Motorcycle",
  "abi": [
    {
      "inputs": [
        {
          "internalType": "string",
          "name": "_make",
          "type": "string"
        },
        {
          "internalType": "string",
          "name": "_model",
          "type": "string"
        },
        {
          "internalType": "uint256",
          "name": "_year",
          "type": "uint256"
        },
        {
          "internalType": "string",
          "name": "_style",
          "type": "string"
        }
      ],
      "stateMutability": "nonpayable",
      "type": "constructor"
    },
    {
      "inputs": [],
      "name": "make",
      "outputs": [
        {
          "internalType": "string",
          "name": "",
          "type": "string"
        }
      ],
      "stateMutability": "view",
      "type": "function"
    },
    {
      "inputs": [],
      "name": "model",
      "outputs": [
        {
          "internalType": "string",
          "name": "",
          "type": "string"
        }
      ],
      "stateMutability": "view",
      "type": "function"
    },
    {
      "inputs": [],
      "name": "style",
      "outputs": [
        {
          "internalType": "string",
          "name": "",
          "type": "string"
        }
      ],
      "stateMutability": "view",
      "type": "function"
    },
    {
      "inputs": [],
      "name": "year",
      "outputs": [
        {
          "internalType": "uint256",
          "name": "",
          "type": "uint256"
        }
      ],
      "stateMutability": "view",
      "type": "function"
    },
    {
      "inputs": [],
      "name": "getDetails",
      "outputs": [
        {
          "internalType": "string",
          "name": "",
          "type": "string"
        },
        {
          "internalType": "string",
          "name": "",
          "type": "string"
        },
        {
          "internalType": "uint256",
          "name": "",
          "type": "uint256"
        }
      ],
      "stateMutability": "view",
      "type": "function"
    }
  ],
  "bytecode": "0x60806040523480156200001157600080fd5b5060405162000a0038038062000a00833981810160405281019062000037919062000321565b83838382600090805190602001906200005292919062000099565b5081600190805190602001906200006b92919062000099565b508060028190555050505080600390805190602001906200008e92919062000099565b505050505062000454565b828054620000a7906200041f565b90600052602060002090601f016020900481019282620000cb576000855562000117565b82601f10620000e657805160ff191683800117855562000117565b8280016001018555821562000117579182015b8281111562000116578251825591602001919060010190620000f9565b5b5090506200012691906200012a565b5090565b5b80821115620001455760008160009055506001016200012b565b5090565b6000604051905090565b600080fd5b600080fd5b600080fd5b600080fd5b6000601f19601f8301169050919050565b7f4e487b7100000000000000000000000000000000000000000000000000000000600052604160045260246000fd5b620001b28262000167565b810181811067ffffffffffffffff82111715620001d457620001d362000178565b5b80604052505050565b6000620001e962000149565b9050620001f78282620001a7565b919050565b600067ffffffffffffffff8211156200021a576200021962000178565b5b620002258262000167565b9050602081019050919050565b60005b838110156200025257808201518184015260208101905062000235565b8381111562000262576000848401525b50505050565b60006200027f6200027984620001fc565b620001dd565b9050828152602081018484840111156200029e576200029d62000162565b5b620002ab84828562000232565b509392505050565b600082601f830112620002cb57620002ca6200015d565b5b8151620002dd84826020860162000268565b91505092915050565b6000819050919050565b620002fb81620002e6565b81146200030757600080fd5b50565b6000815190506200031b81620002f0565b92915050565b600080600080608085870312156200033e576200033d62000153565b5b600085015167ffffffffffffffff8111156200035f576200035e62000158565b5b6200036d87828801620002b3565b945050602085015167ffffffffffffffff81111562000391576200039062000158565b5b6200039f87828801620002b3565b9350506040620003b2878288016200030a565b925050606085015167ffffffffffffffff811115620003d657620003d562000158565b5b620003e487828801620002b3565b91505092959194509250565b7f4e487b7100000000000000000000000000000000000000000000000000000000600052602260045260246000fd5b600060028204905060018216806200043857607f821691505b6020821081036200044e576200044d620003f0565b5b50919050565b61059c80620004646000396000f3fe608060405234801561001057600080fd5b50600436106100575760003560e01c80630ad9d0521461005c578063780e0a901461007a578063c6dad08214610098578063f3269716146100b6578063fbbf93a0146100d4575b600080fd5b6100646100f4565b604051610071919061046b565b60405180910390f35b610082610182565b60405161008f919061046b565b60405180910390f35b6100a0610210565b6040516100ad919061046b565b60405180910390f35b6100be61029e565b6040516100cb91906104a6565b60405180910390f35b6100dc6102a4565b6040516100eb939291906104c1565b60405180910390f35b6001805461010190610535565b80601f016020809104026020016040519081016040528092919081815260200182805461012d90610535565b801561017a5780601f1061014f5761010080835404028352916020019161017a565b820191906000526020600020905b81548152906001019060200180831161015d57829003601f168201915b505050505081565b6003805461018f90610535565b80601f01602080910402602001604051908101604052809291908181526020018280546101bb90610535565b80156102085780601f106101dd57610100808354040283529160200191610208565b820191906000526020600020905b8154815290600101906020018083116101eb57829003601f168201915b505050505081565b6000805461021d90610535565b80601f016020809104026020016040519081016040528092919081815260200182805461024990610535565b80156102965780601f1061026b57610100808354040283529160200191610296565b820191906000526020600020905b81548152906001019060200180831161027957829003601f168201915b505050505081565b60025481565b60608060008060036002548280546102bb90610535565b80601f01602080910402602001604051908101604052809291908181526020018280546102e790610535565b80156103345780601f1061030957610100808354040283529160200191610334565b820191906000526020600020905b81548152906001019060200180831161031757829003601f168201915b5050505050925081805461034790610535565b80601f016020809104026020016040519081016040528092919081815260200182805461037390610535565b80156103c05780601f10610395576101008083540402835291602001916103c0565b820191906000526020600020905b8154815290600101906020018083116103a357829003601f168201915b50505050509150925092509250909192565b600081519050919050565b600082825260208201905092915050565b60005b8381101561040c5780820151818401526020810190506103f1565b8381111561041b576000848401525b50505050565b6000601f19601f8301169050919050565b600061043d826103d2565b61044781856103dd565b93506104578185602086016103ee565b61046081610421565b840191505092915050565b600060208201905081810360008301526104858184610432565b905092915050565b6000819050919050565b6104a08161048d565b82525050565b60006020820190506104bb6000830184610497565b92915050565b600060608201905081810360008301526104db8186610432565b905081810360208301526104ef8185610432565b90506104fe6040830184610497565b949350505050565b7f4e487b7100000000000000000000000000000000000000000000000000000000600052602260045260246000fd5b6000600282049050600182168061054d57607f821691505b6020821081036105605761055f610506565b5b5091905056fea2646970667358221220377e1da3ffede100632d0357f8ba6a63b4c639eab69dee5c8efd13e9eea6c09b64736f6c634300080d0033",
  "immutableReferences": {},
  "source": "// SPDX-License-Identifier: MIT\npragma solidity ^0.8.0;\n\n/**\n * @title Vehicle\n * @dev Base contract for a Vehicle.\n */\ncontract Vehicle {\n    // State variables to store basic vehicle information\n    string public make; // Vehicle make\n    string public model; // Vehicle model\n    uint256 public year; // Vehicle manufacturing year\n\n    /**\n     * @dev Constructor to initialize the Vehicle with the provided details.\n     * @param _make The make of the vehicle.\n     * @param _model The model of the vehicle.\n     * @param _year The manufacturing year of the vehicle.\n     */\n    constructor(string memory _make, string memory _model, uint256 _year) {\n        make = _make;\n        model = _model;\n        year = _year;\n    }\n\n    /**\n     * @dev Function to get the details of the vehicle.\n     * @return The make, model, and year of the vehicle.\n     */\n    function getDetails() public virtual view returns (string memory, string memory, uint256) {\n        return (make, model, year);\n    }\n}\n\n/**\n * @title Car\n * @dev Contract for a Car, inheriting from Vehicle.\n */\ncontract Car is Vehicle {\n    // Additional state variable to store the number of doors of the car\n    uint256 public numDoors; // Number of doors of the car\n\n    /**\n     * @dev Constructor to initialize the Car with the provided details.\n     * @param _make The make of the car.\n     * @param _model The model of the car.\n     * @param _year The manufacturing year of the car.\n     * @param _numDoors The number of doors of the car.\n     */\n    constructor(string memory _make, string memory _model, uint256 _year, uint256 _numDoors)\n        Vehicle(_make, _model, _year)\n    {\n        numDoors = _numDoors;\n    }\n    \n    /**\n     * @dev Function to get the details of the car.\n     * @return The make, model, and year of the car.\n     */\n    function getDetails() public view override returns (string memory, string memory, uint256) {\n        return (make, model, year); // Returns the basic vehicle details\n    }\n}\n\n/**\n * @title Motorcycle\n * @dev Contract for a Motorcycle, inheriting from Vehicle.\n */\ncontract Motorcycle is Vehicle {\n    // Additional state variable to store the style of the motorcycle\n    string public style; // Motorcycle style\n\n    /**\n     * @dev Constructor to initialize the Motorcycle with the provided details.\n     * @param _make The make of the motorcycle.\n     * @param _model The model of the motorcycle.\n     * @param _year The manufacturing year of the motorcycle.\n     * @param _style The style of the motorcycle.\n     */\n    constructor(string memory _make, string memory _model, uint256 _year, string memory _style)\n        Vehicle(_make, _model, _year)\n    {\n        style = _style;\n    }\n    \n    /**\n     * @dev Function to get the details of the motorcycle.\n     * @return The make, style, and year of the motorcycle.\n     */\n    function getDetails() public view override returns (string memory, string memory, uint256) {\n        return (make, style, year); // Returns the details with motorcycle-specific style\n    }\n}\n",
  "sourcePath": "Z:\\ADS\\thechaincademy-course\\backend\\contracts\\Heranca.sol",
  "compiler": {
    "name": "solc",
    "version": "0.8.13+commit.abaa5c0e.Emscripten.clang"
  },
  "schemaVersion": "3.4.16",
  "updatedAt": "2024-04-04T23:26:50.969Z",
  "devdoc": {
    "details": "Contract for a Motorcycle, inheriting from Vehicle.",
    "kind": "dev",
    "methods": {
      "constructor": {
        "details": "Constructor to initialize the Motorcycle with the provided details.",
        "params": {
          "_make": "The make of the motorcycle.",
          "_model": "The model of the motorcycle.",
          "_style": "The style of the motorcycle.",
          "_year": "The manufacturing year of the motorcycle."
        }
      },
      "getDetails()": {
        "details": "Function to get the details of the motorcycle.",
        "returns": {
          "_0": "The make, style, and year of the motorcycle."
        }
      }
    },
    "title": "Motorcycle",
    "version": 1
  },
  "userdoc": {
    "kind": "user",
    "methods": {},
    "version": 1
  }
}