{
  "contractName": "SimpleVoting",
  "abi": [
    {
      "inputs": [
        {
          "internalType": "uint256",
          "name": "",
          "type": "uint256"
        }
      ],
      "name": "candidates",
      "outputs": [
        {
          "internalType": "string",
          "name": "name",
          "type": "string"
        },
        {
          "internalType": "uint256",
          "name": "voteCount",
          "type": "uint256"
        }
      ],
      "stateMutability": "view",
      "type": "function",
      "constant": true
    },
    {
      "inputs": [
        {
          "internalType": "address",
          "name": "",
          "type": "address"
        }
      ],
      "name": "hasVoted",
      "outputs": [
        {
          "internalType": "bool",
          "name": "",
          "type": "bool"
        }
      ],
      "stateMutability": "view",
      "type": "function",
      "constant": true
    },
    {
      "inputs": [
        {
          "internalType": "string",
          "name": "_name",
          "type": "string"
        }
      ],
      "name": "addCandidate",
      "outputs": [],
      "stateMutability": "nonpayable",
      "type": "function"
    },
    {
      "inputs": [
        {
          "internalType": "uint256",
          "name": "candidateIndex",
          "type": "uint256"
        }
      ],
      "name": "vote",
      "outputs": [],
      "stateMutability": "nonpayable",
      "type": "function"
    },
    {
      "inputs": [
        {
          "internalType": "uint256",
          "name": "_index",
          "type": "uint256"
        }
      ],
      "name": "getCandidateByIndex",
      "outputs": [
        {
          "components": [
            {
              "internalType": "string",
              "name": "name",
              "type": "string"
            },
            {
              "internalType": "uint256",
              "name": "voteCount",
              "type": "uint256"
            }
          ],
          "internalType": "struct SimpleVoting.Candidate",
          "name": "",
          "type": "tuple"
        }
      ],
      "stateMutability": "view",
      "type": "function",
      "constant": true
    },
    {
      "inputs": [],
      "name": "getWinningCandidate",
      "outputs": [
        {
          "internalType": "string",
          "name": "",
          "type": "string"
        }
      ],
      "stateMutability": "view",
      "type": "function",
      "constant": true
    },
    {
      "inputs": [],
      "name": "candidatesCount",
      "outputs": [
        {
          "internalType": "uint256",
          "name": "",
          "type": "uint256"
        }
      ],
      "stateMutability": "view",
      "type": "function",
      "constant": true
    }
  ],
  "bytecode": "0x608060405234801561001057600080fd5b50610da6806100206000396000f3fe608060405234801561001057600080fd5b506004361061007d5760003560e01c80633477ee2e1161005b5780633477ee2e146100ec578063462e91ec1461011d578063ab172cf514610139578063f927cc29146101695761007d565b80630121b93f1461008257806309eef43e1461009e5780632d35a8a2146100ce575b600080fd5b61009c60048036038101906100979190610759565b610187565b005b6100b860048036038101906100b391906107e4565b6102a9565b6040516100c5919061082c565b60405180910390f35b6100d66102c9565b6040516100e39190610856565b60405180910390f35b61010660048036038101906101019190610759565b6102d5565b60405161011492919061090a565b60405180910390f35b61013760048036038101906101329190610a6f565b610391565b005b610153600480360381019061014e9190610759565b6103fe565b6040516101609190610b4e565b60405180910390f35b61017161051d565b60405161017e9190610b70565b60405180910390f35b600160003373ffffffffffffffffffffffffffffffffffffffff1673ffffffffffffffffffffffffffffffffffffffff16815260200190815260200160002060009054906101000a900460ff1615610214576040517f08c379a000000000000000000000000000000000000000000000000000000000815260040161020b90610bde565b60405180910390fd5b60018060003373ffffffffffffffffffffffffffffffffffffffff1673ffffffffffffffffffffffffffffffffffffffff16815260200190815260200160002060006101000a81548160ff0219169083151502179055506000818154811061027f5761027e610bfe565b5b906000526020600020906002020160010160008154809291906102a190610c5c565b919050555050565b60016020528060005260406000206000915054906101000a900460ff1681565b60008080549050905090565b600081815481106102e557600080fd5b906000526020600020906002020160009150905080600001805461030890610cd3565b80601f016020809104026020016040519081016040528092919081815260200182805461033490610cd3565b80156103815780601f1061035657610100808354040283529160200191610381565b820191906000526020600020905b81548152906001019060200180831161036457829003601f168201915b5050505050908060010154905082565b600060405180604001604052808381526020016000815250908060018154018082558091505060019003906000526020600020906002020160009091909190915060008201518160000190805190602001906103ee929190610652565b5060208201518160010155505050565b6104066106d8565b600080549050821061044d576040517f08c379a000000000000000000000000000000000000000000000000000000000815260040161044490610d50565b60405180910390fd5b6000828154811061046157610460610bfe565b5b906000526020600020906002020160405180604001604052908160008201805461048a90610cd3565b80601f01602080910402602001604051908101604052809291908181526020018280546104b690610cd3565b80156105035780601f106104d857610100808354040283529160200191610503565b820191906000526020600020905b8154815290600101906020018083116104e657829003601f168201915b505050505081526020016001820154815250509050919050565b6060600080600190505b60008054905081101561059d576000828154811061054857610547610bfe565b5b9060005260206000209060020201600101546000828154811061056e5761056d610bfe565b5b906000526020600020906002020160010154111561058a578091505b808061059590610c5c565b915050610527565b50600081815481106105b2576105b1610bfe565b5b906000526020600020906002020160000180546105ce90610cd3565b80601f01602080910402602001604051908101604052809291908181526020018280546105fa90610cd3565b80156106475780601f1061061c57610100808354040283529160200191610647565b820191906000526020600020905b81548152906001019060200180831161062a57829003601f168201915b505050505091505090565b82805461065e90610cd3565b90600052602060002090601f01602090048101928261068057600085556106c7565b82601f1061069957805160ff19168380011785556106c7565b828001600101855582156106c7579182015b828111156106c65782518255916020019190600101906106ab565b5b5090506106d491906106f2565b5090565b604051806040016040528060608152602001600081525090565b5b8082111561070b5760008160009055506001016106f3565b5090565b6000604051905090565b600080fd5b600080fd5b6000819050919050565b61073681610723565b811461074157600080fd5b50565b6000813590506107538161072d565b92915050565b60006020828403121561076f5761076e610719565b5b600061077d84828501610744565b91505092915050565b600073ffffffffffffffffffffffffffffffffffffffff82169050919050565b60006107b182610786565b9050919050565b6107c1816107a6565b81146107cc57600080fd5b50565b6000813590506107de816107b8565b92915050565b6000602082840312156107fa576107f9610719565b5b6000610808848285016107cf565b91505092915050565b60008115159050919050565b61082681610811565b82525050565b6000602082019050610841600083018461081d565b92915050565b61085081610723565b82525050565b600060208201905061086b6000830184610847565b92915050565b600081519050919050565b600082825260208201905092915050565b60005b838110156108ab578082015181840152602081019050610890565b838111156108ba576000848401525b50505050565b6000601f19601f8301169050919050565b60006108dc82610871565b6108e6818561087c565b93506108f681856020860161088d565b6108ff816108c0565b840191505092915050565b6000604082019050818103600083015261092481856108d1565b90506109336020830184610847565b9392505050565b600080fd5b600080fd5b7f4e487b7100000000000000000000000000000000000000000000000000000000600052604160045260246000fd5b61097c826108c0565b810181811067ffffffffffffffff8211171561099b5761099a610944565b5b80604052505050565b60006109ae61070f565b90506109ba8282610973565b919050565b600067ffffffffffffffff8211156109da576109d9610944565b5b6109e3826108c0565b9050602081019050919050565b82818337600083830152505050565b6000610a12610a0d846109bf565b6109a4565b905082815260208101848484011115610a2e57610a2d61093f565b5b610a398482856109f0565b509392505050565b600082601f830112610a5657610a5561093a565b5b8135610a668482602086016109ff565b91505092915050565b600060208284031215610a8557610a84610719565b5b600082013567ffffffffffffffff811115610aa357610aa261071e565b5b610aaf84828501610a41565b91505092915050565b600082825260208201905092915050565b6000610ad482610871565b610ade8185610ab8565b9350610aee81856020860161088d565b610af7816108c0565b840191505092915050565b610b0b81610723565b82525050565b60006040830160008301518482036000860152610b2e8282610ac9565b9150506020830151610b436020860182610b02565b508091505092915050565b60006020820190508181036000830152610b688184610b11565b905092915050565b60006020820190508181036000830152610b8a81846108d1565b905092915050565b7f416c726561647920766f74656400000000000000000000000000000000000000600082015250565b6000610bc8600d8361087c565b9150610bd382610b92565b602082019050919050565b60006020820190508181036000830152610bf781610bbb565b9050919050565b7f4e487b7100000000000000000000000000000000000000000000000000000000600052603260045260246000fd5b7f4e487b7100000000000000000000000000000000000000000000000000000000600052601160045260246000fd5b6000610c6782610723565b91507fffffffffffffffffffffffffffffffffffffffffffffffffffffffffffffffff8203610c9957610c98610c2d565b5b600182019050919050565b7f4e487b7100000000000000000000000000000000000000000000000000000000600052602260045260246000fd5b60006002820490506001821680610ceb57607f821691505b602082108103610cfe57610cfd610ca4565b5b50919050565b7f496e646578206f7574206f6620626f756e647300000000000000000000000000600082015250565b6000610d3a60138361087c565b9150610d4582610d04565b602082019050919050565b60006020820190508181036000830152610d6981610d2d565b905091905056fea26469706673582212204084cb6869f8ca5d6fdd376cee5c0fbb9ce7110d14b5ac20828ba6404fc86d2064736f6c634300080d0033",
  "immutableReferences": {},
  "source": "// SPDX-License-Identifier: MIT\npragma solidity ^0.8.0;\n\n/**\n * @title SimpleVoting\n * @dev Smart contract for conducting a simple voting process.\n */\ncontract SimpleVoting {\n    // Struct to represent a candidate\n    struct Candidate {\n        string name; // Name of the candidate\n        uint256 voteCount; // Number of votes received by the candidate\n    }\n\n    // Array to store the list of candidates\n    Candidate[] public candidates;\n\n    // Mapping to keep track of whether an address has voted\n    mapping(address => bool) public hasVoted;\n\n    /**\n     * @dev Function to add a new candidate to the list\n     * @param _name The name of the candidate to be added\n     */\n    function addCandidate(string memory _name) public {\n        candidates.push(Candidate(_name, 0));\n    }\n\n    /**\n     * @dev Function to allow an address to vote for a candidate\n     * @param candidateIndex The index of the candidate in the candidates array\n     */\n    function vote(uint256 candidateIndex) public {\n        require(!hasVoted[msg.sender], \"Already voted\");\n        hasVoted[msg.sender] = true;\n        candidates[candidateIndex].voteCount++;\n    }\n\n    /**\n     * @dev Function to get the details of a candidate by index\n     * @param _index The index of the candidate in the candidates array\n     * @return The details of the candidate (name and vote count)\n     */\n    function getCandidateByIndex(uint256 _index) public view returns (Candidate memory) {\n        require(_index < candidates.length, \"Index out of bounds\");\n        return candidates[_index];\n    }\n\n    /**\n     * @dev Function to determine the winning candidate\n     * @return The name of the winning candidate\n     */\n    function getWinningCandidate() public view returns (string memory) {\n        uint256 winningIndex = 0;\n        for (uint256 i = 1; i < candidates.length; i++) {\n            if (candidates[i].voteCount > candidates[winningIndex].voteCount) {\n                winningIndex = i;\n            }\n        }\n        return candidates[winningIndex].name;\n    }\n\n    /**\n     * @dev Function to get the total number of candidates\n     * @return The total number of candidates\n     */\n    function candidatesCount() public view returns (uint256) {\n        return candidates.length;\n    }\n}\n",
  "sourcePath": "Z:\\ADS\\thechaincademy-course\\backend\\contracts\\SimpleVoting.sol",
  "compiler": {
    "name": "solc",
    "version": "0.8.13+commit.abaa5c0e.Emscripten.clang"
  },
  "schemaVersion": "3.4.16",
  "updatedAt": "2024-04-04T23:26:59.025Z",
  "networkType": "ethereum",
  "devdoc": {
    "details": "Smart contract for conducting a simple voting process.",
    "kind": "dev",
    "methods": {
      "addCandidate(string)": {
        "details": "Function to add a new candidate to the list",
        "params": {
          "_name": "The name of the candidate to be added"
        }
      },
      "candidatesCount()": {
        "details": "Function to get the total number of candidates",
        "returns": {
          "_0": "The total number of candidates"
        }
      },
      "getCandidateByIndex(uint256)": {
        "details": "Function to get the details of a candidate by index",
        "params": {
          "_index": "The index of the candidate in the candidates array"
        },
        "returns": {
          "_0": "The details of the candidate (name and vote count)"
        }
      },
      "getWinningCandidate()": {
        "details": "Function to determine the winning candidate",
        "returns": {
          "_0": "The name of the winning candidate"
        }
      },
      "vote(uint256)": {
        "details": "Function to allow an address to vote for a candidate",
        "params": {
          "candidateIndex": "The index of the candidate in the candidates array"
        }
      }
    },
    "title": "SimpleVoting",
    "version": 1
  },
  "userdoc": {
    "kind": "user",
    "methods": {},
    "version": 1
  }
}