{
  "contractName": "SimpleVoting",
  "abi": [
    {
      "inputs": [
        {
          "internalType": "uint256",
          "name": "",
          "type": "uint256"
        }
      ],
      "name": "candidates",
      "outputs": [
        {
          "internalType": "string",
          "name": "name",
          "type": "string"
        },
        {
          "internalType": "uint256",
          "name": "voteCount",
          "type": "uint256"
        }
      ],
      "stateMutability": "view",
      "type": "function",
      "constant": true
    },
    {
      "inputs": [
        {
          "internalType": "address",
          "name": "",
          "type": "address"
        }
      ],
      "name": "hasVoted",
      "outputs": [
        {
          "internalType": "bool",
          "name": "",
          "type": "bool"
        }
      ],
      "stateMutability": "view",
      "type": "function",
      "constant": true
    },
    {
      "inputs": [
        {
          "internalType": "string",
          "name": "name",
          "type": "string"
        }
      ],
      "name": "addCandidate",
      "outputs": [],
      "stateMutability": "nonpayable",
      "type": "function"
    },
    {
      "inputs": [
        {
          "internalType": "uint256",
          "name": "candidateIndex",
          "type": "uint256"
        }
      ],
      "name": "vote",
      "outputs": [],
      "stateMutability": "nonpayable",
      "type": "function"
    },
    {
      "inputs": [],
      "name": "getWinningCandidate",
      "outputs": [
        {
          "internalType": "string",
          "name": "",
          "type": "string"
        }
      ],
      "stateMutability": "view",
      "type": "function",
      "constant": true
    }
  ],
  "bytecode": "0x608060405234801561001057600080fd5b50610aad806100206000396000f3fe608060405234801561001057600080fd5b50600436106100575760003560e01c80630121b93f1461005c57806309eef43e146100785780633477ee2e146100a8578063462e91ec146100d9578063f927cc29146100f5575b600080fd5b6100766004803603810190610071919061059f565b610113565b005b610092600480360381019061008d919061062a565b610234565b60405161009f9190610672565b60405180910390f35b6100c260048036038101906100bd919061059f565b610254565b6040516100d0929190610735565b60405180910390f35b6100f360048036038101906100ee919061089a565b610310565b005b6100fd61037d565b60405161010a91906108e3565b60405180910390f35b6000803373ffffffffffffffffffffffffffffffffffffffff1673ffffffffffffffffffffffffffffffffffffffff16815260200190815260200160002060009054906101000a900460ff161561019f576040517f08c379a000000000000000000000000000000000000000000000000000000000815260040161019690610951565b60405180910390fd5b60016000803373ffffffffffffffffffffffffffffffffffffffff1673ffffffffffffffffffffffffffffffffffffffff16815260200190815260200160002060006101000a81548160ff0219169083151502179055506001818154811061020a57610209610971565b5b9060005260206000209060020201600101600081548092919061022c906109cf565b919050555050565b60006020528060005260406000206000915054906101000a900460ff1681565b6001818154811061026457600080fd5b906000526020600020906002020160009150905080600001805461028790610a46565b80601f01602080910402602001604051908101604052809291908181526020018280546102b390610a46565b80156103005780601f106102d557610100808354040283529160200191610300565b820191906000526020600020905b8154815290600101906020018083116102e357829003601f168201915b5050505050908060010154905082565b6001604051806040016040528083815260200160008152509080600181540180825580915050600190039060005260206000209060020201600090919091909150600082015181600001908051906020019061036d9291906104b2565b5060208201518160010155505050565b6060600080600190505b6001805490508110156103fd57600182815481106103a8576103a7610971565b5b906000526020600020906002020160010154600182815481106103ce576103cd610971565b5b90600052602060002090600202016001015411156103ea578091505b80806103f5906109cf565b915050610387565b506001818154811061041257610411610971565b5b9060005260206000209060020201600001805461042e90610a46565b80601f016020809104026020016040519081016040528092919081815260200182805461045a90610a46565b80156104a75780601f1061047c576101008083540402835291602001916104a7565b820191906000526020600020905b81548152906001019060200180831161048a57829003601f168201915b505050505091505090565b8280546104be90610a46565b90600052602060002090601f0160209004810192826104e05760008555610527565b82601f106104f957805160ff1916838001178555610527565b82800160010185558215610527579182015b8281111561052657825182559160200191906001019061050b565b5b5090506105349190610538565b5090565b5b80821115610551576000816000905550600101610539565b5090565b6000604051905090565b600080fd5b600080fd5b6000819050919050565b61057c81610569565b811461058757600080fd5b50565b60008135905061059981610573565b92915050565b6000602082840312156105b5576105b461055f565b5b60006105c38482850161058a565b91505092915050565b600073ffffffffffffffffffffffffffffffffffffffff82169050919050565b60006105f7826105cc565b9050919050565b610607816105ec565b811461061257600080fd5b50565b600081359050610624816105fe565b92915050565b6000602082840312156106405761063f61055f565b5b600061064e84828501610615565b91505092915050565b60008115159050919050565b61066c81610657565b82525050565b60006020820190506106876000830184610663565b92915050565b600081519050919050565b600082825260208201905092915050565b60005b838110156106c75780820151818401526020810190506106ac565b838111156106d6576000848401525b50505050565b6000601f19601f8301169050919050565b60006106f88261068d565b6107028185610698565b93506107128185602086016106a9565b61071b816106dc565b840191505092915050565b61072f81610569565b82525050565b6000604082019050818103600083015261074f81856106ed565b905061075e6020830184610726565b9392505050565b600080fd5b600080fd5b7f4e487b7100000000000000000000000000000000000000000000000000000000600052604160045260246000fd5b6107a7826106dc565b810181811067ffffffffffffffff821117156107c6576107c561076f565b5b80604052505050565b60006107d9610555565b90506107e5828261079e565b919050565b600067ffffffffffffffff8211156108055761080461076f565b5b61080e826106dc565b9050602081019050919050565b82818337600083830152505050565b600061083d610838846107ea565b6107cf565b9050828152602081018484840111156108595761085861076a565b5b61086484828561081b565b509392505050565b600082601f83011261088157610880610765565b5b813561089184826020860161082a565b91505092915050565b6000602082840312156108b0576108af61055f565b5b600082013567ffffffffffffffff8111156108ce576108cd610564565b5b6108da8482850161086c565b91505092915050565b600060208201905081810360008301526108fd81846106ed565b905092915050565b7f416c726561647920766f74656400000000000000000000000000000000000000600082015250565b600061093b600d83610698565b915061094682610905565b602082019050919050565b6000602082019050818103600083015261096a8161092e565b9050919050565b7f4e487b7100000000000000000000000000000000000000000000000000000000600052603260045260246000fd5b7f4e487b7100000000000000000000000000000000000000000000000000000000600052601160045260246000fd5b60006109da82610569565b91507fffffffffffffffffffffffffffffffffffffffffffffffffffffffffffffffff8203610a0c57610a0b6109a0565b5b600182019050919050565b7f4e487b7100000000000000000000000000000000000000000000000000000000600052602260045260246000fd5b60006002820490506001821680610a5e57607f821691505b602082108103610a7157610a70610a17565b5b5091905056fea26469706673582212208a609d0b1d23caf8033f24a4cde1a8272450b7b8970ae29484d19eb936a31d0264736f6c634300080d0033",
  "immutableReferences": {},
  "source": "pragma solidity ^0.8.0;\n\ncontract SimpleVoting {\n  struct Candidate {\n    string name;\n    uint256 voteCount;\n  }\n\n  mapping(address => bool) public hasVoted;\n  Candidate[] public candidates;\n\n  function addCandidate(string memory name) public {\n    candidates.push(Candidate(name, 0));\n  }\n\n  function vote(uint256 candidateIndex) public {\n    require(!hasVoted[msg.sender], \"Already voted\");\n    hasVoted[msg.sender] = true;\n    candidates[candidateIndex].voteCount++;\n  }\n\n  function getWinningCandidate() public view returns (string memory) {\n    uint256 winningIndex = 0;\n    for (uint256 i = 1; i < candidates.length; i++) {\n      if (candidates[i].voteCount > candidates[winningIndex].voteCount) {\n        winningIndex = i;\n      }\n    }\n    return candidates[winningIndex].name;\n  }\n}\n",
  "sourcePath": "Z:\\ADS\\thechaincademy-course\\backend\\contracts\\SimpleVoting.sol",
  "compiler": {
    "name": "solc",
    "version": "0.8.13+commit.abaa5c0e.Emscripten.clang"
  },
  "schemaVersion": "3.4.16",
  "updatedAt": "2024-04-03T00:51:23.537Z",
  "networkType": "ethereum",
  "devdoc": {
    "kind": "dev",
    "methods": {},
    "version": 1
  },
  "userdoc": {
    "kind": "user",
    "methods": {},
    "version": 1
  }
}