{
  "contractName": "SimpleContract",
  "abi": [
    {
      "inputs": [],
      "stateMutability": "nonpayable",
      "type": "constructor"
    },
    {
      "inputs": [
        {
          "internalType": "address",
          "name": "caller",
          "type": "address"
        },
        {
          "internalType": "address",
          "name": "owner",
          "type": "address"
        }
      ],
      "name": "UnauthorizedAccess",
      "type": "error"
    },
    {
      "inputs": [],
      "name": "myAddress",
      "outputs": [
        {
          "internalType": "address",
          "name": "",
          "type": "address"
        }
      ],
      "stateMutability": "view",
      "type": "function",
      "constant": true
    },
    {
      "inputs": [],
      "name": "myBool",
      "outputs": [
        {
          "internalType": "bool",
          "name": "",
          "type": "bool"
        }
      ],
      "stateMutability": "view",
      "type": "function",
      "constant": true
    },
    {
      "inputs": [],
      "name": "myBytes32",
      "outputs": [
        {
          "internalType": "bytes32",
          "name": "",
          "type": "bytes32"
        }
      ],
      "stateMutability": "view",
      "type": "function",
      "constant": true
    },
    {
      "inputs": [],
      "name": "myString",
      "outputs": [
        {
          "internalType": "string",
          "name": "",
          "type": "string"
        }
      ],
      "stateMutability": "view",
      "type": "function",
      "constant": true
    },
    {
      "inputs": [],
      "name": "myUint",
      "outputs": [
        {
          "internalType": "uint256",
          "name": "",
          "type": "uint256"
        }
      ],
      "stateMutability": "view",
      "type": "function",
      "constant": true
    },
    {
      "inputs": [
        {
          "internalType": "uint256",
          "name": "newValue",
          "type": "uint256"
        }
      ],
      "name": "setMyUint",
      "outputs": [],
      "stateMutability": "nonpayable",
      "type": "function"
    },
    {
      "inputs": [
        {
          "internalType": "uint256",
          "name": "newValue",
          "type": "uint256"
        }
      ],
      "name": "setValue",
      "outputs": [],
      "stateMutability": "nonpayable",
      "type": "function"
    },
    {
      "inputs": [],
      "name": "getValue",
      "outputs": [
        {
          "internalType": "uint256",
          "name": "",
          "type": "uint256"
        }
      ],
      "stateMutability": "view",
      "type": "function",
      "constant": true
    },
    {
      "inputs": [
        {
          "internalType": "string",
          "name": "newValue",
          "type": "string"
        }
      ],
      "name": "setMyString",
      "outputs": [],
      "stateMutability": "nonpayable",
      "type": "function"
    },
    {
      "inputs": [],
      "name": "getMyUint",
      "outputs": [
        {
          "internalType": "uint256",
          "name": "",
          "type": "uint256"
        }
      ],
      "stateMutability": "view",
      "type": "function",
      "constant": true
    }
  ],
  "bytecode": "0x60806040523480156200001157600080fd5b5033600560006101000a81548173ffffffffffffffffffffffffffffffffffffffff021916908373ffffffffffffffffffffffffffffffffffffffff160217905550607b60008190555033600160006101000a81548173ffffffffffffffffffffffffffffffffffffffff021916908373ffffffffffffffffffffffffffffffffffffffff1602179055506040518060400160405280600d81526020017f48656c6c6f2c20776f726c64210000000000000000000000000000000000000081525060029080519060200190620000e992919062000138565b506001600360006101000a81548160ff021916908315150217905550604051602001620001169062000243565b60405160208183030381529060405280519060200120600481905550620002be565b828054620001469062000289565b90600052602060002090601f0160209004810192826200016a5760008555620001b6565b82601f106200018557805160ff1916838001178555620001b6565b82800160010185558215620001b6579182015b82811115620001b557825182559160200191906001019062000198565b5b509050620001c59190620001c9565b5090565b5b80821115620001e4576000816000905550600101620001ca565b5090565b600081905092915050565b7f736f6c6964697479000000000000000000000000000000000000000000000000600082015250565b60006200022b600883620001e8565b91506200023882620001f3565b600882019050919050565b600062000250826200021c565b9150819050919050565b7f4e487b7100000000000000000000000000000000000000000000000000000000600052602260045260246000fd5b60006002820490506001821680620002a257607f821691505b602082108103620002b857620002b76200025a565b5b50919050565b610a3e80620002ce6000396000f3fe608060405234801561001057600080fd5b506004361061009e5760003560e01c80634b3e7e0c116100665780634b3e7e0c1461013957806355241077146101575780636deecdbe146101735780638218056814610191578063e492fd84146101ad5761009e565b806306540f7e146100a357806320965255146100c157806326b85ee1146100df578063392aee47146100fd578063492bfa181461011b575b600080fd5b6100ab6101c9565b6040516100b891906104fd565b60405180910390f35b6100c96101cf565b6040516100d691906104fd565b60405180910390f35b6100e76101d8565b6040516100f49190610559565b60405180910390f35b6101056101fe565b60405161011291906104fd565b60405180910390f35b610123610207565b604051610130919061060d565b60405180910390f35b610141610295565b60405161014e9190610648565b60405180910390f35b610171600480360381019061016c91906106a3565b61029b565b005b61017b6102a5565b60405161018891906106eb565b60405180910390f35b6101ab60048036038101906101a6919061083b565b6102b8565b005b6101c760048036038101906101c291906106a3565b610362565b005b60005481565b60008054905090565b600160009054906101000a900473ffffffffffffffffffffffffffffffffffffffff1681565b60008054905090565b60028054610214906108b3565b80601f0160208091040260200160405190810160405280929190818152602001828054610240906108b3565b801561028d5780601f106102625761010080835404028352916020019161028d565b820191906000526020600020905b81548152906001019060200180831161027057829003601f168201915b505050505081565b60045481565b8060008190555050565b600360009054906101000a900460ff1681565b600560009054906101000a900473ffffffffffffffffffffffffffffffffffffffff1673ffffffffffffffffffffffffffffffffffffffff163373ffffffffffffffffffffffffffffffffffffffff1614610348576040517f08c379a000000000000000000000000000000000000000000000000000000000815260040161033f90610956565b60405180910390fd5b806002908051906020019061035e929190610441565b5050565b600560009054906101000a900473ffffffffffffffffffffffffffffffffffffffff1673ffffffffffffffffffffffffffffffffffffffff163373ffffffffffffffffffffffffffffffffffffffff16146103f2576040517f08c379a00000000000000000000000000000000000000000000000000000000081526004016103e990610956565b60405180910390fd5b8060008111610436576040517f08c379a000000000000000000000000000000000000000000000000000000000815260040161042d906109e8565b60405180910390fd5b816000819055505050565b82805461044d906108b3565b90600052602060002090601f01602090048101928261046f57600085556104b6565b82601f1061048857805160ff19168380011785556104b6565b828001600101855582156104b6579182015b828111156104b557825182559160200191906001019061049a565b5b5090506104c391906104c7565b5090565b5b808211156104e05760008160009055506001016104c8565b5090565b6000819050919050565b6104f7816104e4565b82525050565b600060208201905061051260008301846104ee565b92915050565b600073ffffffffffffffffffffffffffffffffffffffff82169050919050565b600061054382610518565b9050919050565b61055381610538565b82525050565b600060208201905061056e600083018461054a565b92915050565b600081519050919050565b600082825260208201905092915050565b60005b838110156105ae578082015181840152602081019050610593565b838111156105bd576000848401525b50505050565b6000601f19601f8301169050919050565b60006105df82610574565b6105e9818561057f565b93506105f9818560208601610590565b610602816105c3565b840191505092915050565b6000602082019050818103600083015261062781846105d4565b905092915050565b6000819050919050565b6106428161062f565b82525050565b600060208201905061065d6000830184610639565b92915050565b6000604051905090565b600080fd5b600080fd5b610680816104e4565b811461068b57600080fd5b50565b60008135905061069d81610677565b92915050565b6000602082840312156106b9576106b861066d565b5b60006106c78482850161068e565b91505092915050565b60008115159050919050565b6106e5816106d0565b82525050565b600060208201905061070060008301846106dc565b92915050565b600080fd5b600080fd5b7f4e487b7100000000000000000000000000000000000000000000000000000000600052604160045260246000fd5b610748826105c3565b810181811067ffffffffffffffff8211171561076757610766610710565b5b80604052505050565b600061077a610663565b9050610786828261073f565b919050565b600067ffffffffffffffff8211156107a6576107a5610710565b5b6107af826105c3565b9050602081019050919050565b82818337600083830152505050565b60006107de6107d98461078b565b610770565b9050828152602081018484840111156107fa576107f961070b565b5b6108058482856107bc565b509392505050565b600082601f83011261082257610821610706565b5b81356108328482602086016107cb565b91505092915050565b6000602082840312156108515761085061066d565b5b600082013567ffffffffffffffff81111561086f5761086e610672565b5b61087b8482850161080d565b91505092915050565b7f4e487b7100000000000000000000000000000000000000000000000000000000600052602260045260246000fd5b600060028204905060018216806108cb57607f821691505b6020821081036108de576108dd610884565b5b50919050565b7f4f6e6c7920746865206f776e65722063616e2063616c6c20746869732066756e60008201527f6374696f6e000000000000000000000000000000000000000000000000000000602082015250565b600061094060258361057f565b915061094b826108e4565b604082019050919050565b6000602082019050818103600083015261096f81610933565b9050919050565b7f4f6e6c7920706f7369746976652076616c75657320616c6c6f77656420696e2060008201527f746869732066756e6374696f6e00000000000000000000000000000000000000602082015250565b60006109d2602d8361057f565b91506109dd82610976565b604082019050919050565b60006020820190508181036000830152610a01816109c5565b905091905056fea26469706673582212203233d26660a4459d25b41df17f81f8bd06c0a274a29f145321335becc0a51d3464736f6c634300080d0033",
  "immutableReferences": {},
  "source": "// SPDX-License-Identifier: MIT\npragma solidity ^0.8.0;\n\n/**\n * @title SimpleContract\n * @dev Smart contract with basic data types and access control.\n */\ncontract SimpleContract {\n    // State variables\n\n    // Unsigned integer.\n    uint256 public myUint;\n    // Ethereum address.\n    address public myAddress;\n    // String.\n    string public myString;\n    // Boolean.\n    bool public myBool;\n    // Bytes32 value.\n    bytes32 public myBytes32;\n\n    // Private state variable\n\n    // Contract owner\n    address private owner;\n\n    // Errors\n    error UnauthorizedAccess(address caller, address owner);\n\n    // Modifier\n    modifier onlyOwner {\n        require(msg.sender == owner, \"Only the owner can call this function\");\n        _;\n    }\n\n    // Modifier\n    modifier onlyPositiveValues(uint256 value) {\n        require(value > 0, \"Only positive values allowed in this function\");\n        _;\n    }\n\n    // Constructor\n    constructor() {\n        owner = msg.sender; // Set the contract owner to the deployer\n        myUint = 123; // Initialize myUint with a default value\n        myAddress = msg.sender; // Initialize myAddress with the deployer's address\n        myString = \"Hello, world!\"; // Initialize myString with a default value\n        myBool = true; // Initialize myBool with a default value\n        myBytes32 = keccak256(abi.encodePacked(\"solidity\")); // Initialize myBytes32 with a hash value\n    }\n\n    /**\n     * @dev Public function to update myUint\n     * @param newValue The new value to set for myUint\n     */\n    function setMyUint(uint256 newValue) public onlyOwner onlyPositiveValues(newValue) {\n        myUint = newValue; // Update myUint with the new value\n    }\n\n    /**\n     * @dev Public function to set the value of myUint\n     * @param newValue The value to set for myUint\n     */\n    function setValue(uint256 newValue) public {\n        myUint = newValue; // Set the value of myUint\n    }\n\n    /**\n     * @dev Public function to get the value of myUint\n     * @return The value of myUint\n     */\n    function getValue() public view returns (uint256) {\n        return myUint; // Return the value of myUint\n    }\n\n    /**\n     * @dev Public function to update myString\n     * @param newValue The new value to set for myString\n     */\n    function setMyString(string memory newValue) public onlyOwner {\n        myString = newValue; // Update myString with the new value\n    }\n\n    /**\n     * @dev Public function to get the value of myUint\n     * @return The value of myUint\n     */\n    function getMyUint() public view returns (uint256) {\n        return myUint; // Return the value of myUint\n    }\n}\n",
  "sourcePath": "Z:\\ADS\\thechaincademy-course\\backend\\contracts\\SimpleContract.sol",
  "compiler": {
    "name": "solc",
    "version": "0.8.13+commit.abaa5c0e.Emscripten.clang"
  },
  "schemaVersion": "3.4.16",
  "updatedAt": "2024-04-04T23:26:58.164Z",
  "networkType": "ethereum",
  "devdoc": {
    "details": "Smart contract with basic data types and access control.",
    "kind": "dev",
    "methods": {
      "getMyUint()": {
        "details": "Public function to get the value of myUint",
        "returns": {
          "_0": "The value of myUint"
        }
      },
      "getValue()": {
        "details": "Public function to get the value of myUint",
        "returns": {
          "_0": "The value of myUint"
        }
      },
      "setMyString(string)": {
        "details": "Public function to update myString",
        "params": {
          "newValue": "The new value to set for myString"
        }
      },
      "setMyUint(uint256)": {
        "details": "Public function to update myUint",
        "params": {
          "newValue": "The new value to set for myUint"
        }
      },
      "setValue(uint256)": {
        "details": "Public function to set the value of myUint",
        "params": {
          "newValue": "The value to set for myUint"
        }
      }
    },
    "title": "SimpleContract",
    "version": 1
  },
  "userdoc": {
    "kind": "user",
    "methods": {},
    "version": 1
  }
}