{
  "contractName": "Vehicle",
  "abi": [
    {
      "inputs": [
        {
          "internalType": "string",
          "name": "_make",
          "type": "string"
        },
        {
          "internalType": "string",
          "name": "_model",
          "type": "string"
        },
        {
          "internalType": "uint256",
          "name": "_year",
          "type": "uint256"
        }
      ],
      "stateMutability": "nonpayable",
      "type": "constructor"
    },
    {
      "inputs": [],
      "name": "make",
      "outputs": [
        {
          "internalType": "string",
          "name": "",
          "type": "string"
        }
      ],
      "stateMutability": "view",
      "type": "function"
    },
    {
      "inputs": [],
      "name": "model",
      "outputs": [
        {
          "internalType": "string",
          "name": "",
          "type": "string"
        }
      ],
      "stateMutability": "view",
      "type": "function"
    },
    {
      "inputs": [],
      "name": "year",
      "outputs": [
        {
          "internalType": "uint256",
          "name": "",
          "type": "uint256"
        }
      ],
      "stateMutability": "view",
      "type": "function"
    },
    {
      "inputs": [],
      "name": "getDetails",
      "outputs": [
        {
          "internalType": "string",
          "name": "",
          "type": "string"
        },
        {
          "internalType": "string",
          "name": "",
          "type": "string"
        },
        {
          "internalType": "uint256",
          "name": "",
          "type": "uint256"
        }
      ],
      "stateMutability": "view",
      "type": "function"
    }
  ],
  "bytecode": "0x60806040523480156200001157600080fd5b50604051620008f4380380620008f4833981810160405281019062000037919062000301565b82600090805190602001906200004f92919062000079565b5081600190805190602001906200006892919062000079565b5080600281905550505050620003ff565b8280546200008790620003ca565b90600052602060002090601f016020900481019282620000ab5760008555620000f7565b82601f10620000c657805160ff1916838001178555620000f7565b82800160010185558215620000f7579182015b82811115620000f6578251825591602001919060010190620000d9565b5b5090506200010691906200010a565b5090565b5b80821115620001255760008160009055506001016200010b565b5090565b6000604051905090565b600080fd5b600080fd5b600080fd5b600080fd5b6000601f19601f8301169050919050565b7f4e487b7100000000000000000000000000000000000000000000000000000000600052604160045260246000fd5b620001928262000147565b810181811067ffffffffffffffff82111715620001b457620001b362000158565b5b80604052505050565b6000620001c962000129565b9050620001d7828262000187565b919050565b600067ffffffffffffffff821115620001fa57620001f962000158565b5b620002058262000147565b9050602081019050919050565b60005b838110156200023257808201518184015260208101905062000215565b8381111562000242576000848401525b50505050565b60006200025f6200025984620001dc565b620001bd565b9050828152602081018484840111156200027e576200027d62000142565b5b6200028b84828562000212565b509392505050565b600082601f830112620002ab57620002aa6200013d565b5b8151620002bd84826020860162000248565b91505092915050565b6000819050919050565b620002db81620002c6565b8114620002e757600080fd5b50565b600081519050620002fb81620002d0565b92915050565b6000806000606084860312156200031d576200031c62000133565b5b600084015167ffffffffffffffff8111156200033e576200033d62000138565b5b6200034c8682870162000293565b935050602084015167ffffffffffffffff81111562000370576200036f62000138565b5b6200037e8682870162000293565b92505060406200039186828701620002ea565b9150509250925092565b7f4e487b7100000000000000000000000000000000000000000000000000000000600052602260045260246000fd5b60006002820490506001821680620003e357607f821691505b602082108103620003f957620003f86200039b565b5b50919050565b6104e5806200040f6000396000f3fe608060405234801561001057600080fd5b506004361061004c5760003560e01c80630ad9d05214610051578063c6dad0821461006f578063f32697161461008d578063fbbf93a0146100ab575b600080fd5b6100596100cb565b60405161006691906103b4565b60405180910390f35b610077610159565b60405161008491906103b4565b60405180910390f35b6100956101e7565b6040516100a291906103ef565b60405180910390f35b6100b36101ed565b6040516100c29392919061040a565b60405180910390f35b600180546100d89061047e565b80601f01602080910402602001604051908101604052809291908181526020018280546101049061047e565b80156101515780601f1061012657610100808354040283529160200191610151565b820191906000526020600020905b81548152906001019060200180831161013457829003601f168201915b505050505081565b600080546101669061047e565b80601f01602080910402602001604051908101604052809291908181526020018280546101929061047e565b80156101df5780601f106101b4576101008083540402835291602001916101df565b820191906000526020600020905b8154815290600101906020018083116101c257829003601f168201915b505050505081565b60025481565b60608060008060016002548280546102049061047e565b80601f01602080910402602001604051908101604052809291908181526020018280546102309061047e565b801561027d5780601f106102525761010080835404028352916020019161027d565b820191906000526020600020905b81548152906001019060200180831161026057829003601f168201915b505050505092508180546102909061047e565b80601f01602080910402602001604051908101604052809291908181526020018280546102bc9061047e565b80156103095780601f106102de57610100808354040283529160200191610309565b820191906000526020600020905b8154815290600101906020018083116102ec57829003601f168201915b50505050509150925092509250909192565b600081519050919050565b600082825260208201905092915050565b60005b8381101561035557808201518184015260208101905061033a565b83811115610364576000848401525b50505050565b6000601f19601f8301169050919050565b60006103868261031b565b6103908185610326565b93506103a0818560208601610337565b6103a98161036a565b840191505092915050565b600060208201905081810360008301526103ce818461037b565b905092915050565b6000819050919050565b6103e9816103d6565b82525050565b600060208201905061040460008301846103e0565b92915050565b60006060820190508181036000830152610424818661037b565b90508181036020830152610438818561037b565b905061044760408301846103e0565b949350505050565b7f4e487b7100000000000000000000000000000000000000000000000000000000600052602260045260246000fd5b6000600282049050600182168061049657607f821691505b6020821081036104a9576104a861044f565b5b5091905056fea2646970667358221220f824660e2c1df1afd2b4cdb45b7b5dedbd518584f2a6435cb6a8618eaf4833bb64736f6c634300080d0033",
  "immutableReferences": {},
  "source": "// SPDX-License-Identifier: MIT\npragma solidity ^0.8.0;\n\n// Contrato base para um Veculo\ncontract Vehicle {\n    // Variveis de estado para armazenar informaes bsicas do veculo\n    string public make; // Marca do veculo\n    string public model; // Modelo do veculo\n    uint256 public year; // Ano de fabricao do veculo\n\n\n    constructor(string memory _make, string memory _model, uint256 _year) {\n        make = _make;\n        model = _model;\n        year = _year;\n    }\n\n    // Funo para obter os detalhes do veculo\n    function getDetails() public virtual view returns (string memory, string memory, uint256) {\n        return (make, model, year);\n    }\n}\n\n// Contrato para Carro, que herda de Vehicle\ncontract Car is Vehicle {\n    // Varivel de estado adicional para armazenar o nmero de portas do carro\n    uint256 public numDoors; // Nmero de portas do carro\n\n    constructor(string memory _make, string memory _model, uint256 _year, uint256 _numDoors)\n        Vehicle(_make, _model, _year)\n    {\n        numDoors = _numDoors;\n    }\n    \n    // Funo para obter os detalhes do carro\n    function getDetails() public view override returns (string memory, string memory, uint256) {\n        return (make, model, year); // Retorna os detalhes bsicos do veculo\n    }\n}\n\n// Contrato para Moto, que herda de Vehicle\ncontract Motorcycle is Vehicle {\n    // Varivel de estado adicional para armazenar o estilo da moto\n    string public style; // Estilo da moto\n\n    constructor(string memory _make, string memory _model, uint256 _year, string memory _style)\n        Vehicle(_make, _model, _year)\n    {\n        style = _style;\n    }\n    \n    // Funo para obter os detalhes da moto\n    function getDetails() public view override returns (string memory, string memory, uint256) {\n        return (make, style, year); // Retorna os detalhes com estilo especfico da moto\n    }\n}",
  "sourcePath": "Z:\\ADS\\thechaincademy-course\\backend\\contracts\\heranca.sol",
  "compiler": {
    "name": "solc",
    "version": "0.8.13+commit.abaa5c0e.Emscripten.clang"
  },
  "schemaVersion": "3.4.16",
  "updatedAt": "2024-04-03T23:27:24.478Z",
  "devdoc": {
    "kind": "dev",
    "methods": {},
    "version": 1
  },
  "userdoc": {
    "kind": "user",
    "methods": {},
    "version": 1
  }
}