{
  "contractName": "Car",
  "abi": [
    {
      "inputs": [
        {
          "internalType": "string",
          "name": "_make",
          "type": "string"
        },
        {
          "internalType": "string",
          "name": "_model",
          "type": "string"
        },
        {
          "internalType": "uint256",
          "name": "_year",
          "type": "uint256"
        },
        {
          "internalType": "uint256",
          "name": "_numDoors",
          "type": "uint256"
        }
      ],
      "stateMutability": "nonpayable",
      "type": "constructor"
    },
    {
      "inputs": [],
      "name": "make",
      "outputs": [
        {
          "internalType": "string",
          "name": "",
          "type": "string"
        }
      ],
      "stateMutability": "view",
      "type": "function"
    },
    {
      "inputs": [],
      "name": "model",
      "outputs": [
        {
          "internalType": "string",
          "name": "",
          "type": "string"
        }
      ],
      "stateMutability": "view",
      "type": "function"
    },
    {
      "inputs": [],
      "name": "numDoors",
      "outputs": [
        {
          "internalType": "uint256",
          "name": "",
          "type": "uint256"
        }
      ],
      "stateMutability": "view",
      "type": "function"
    },
    {
      "inputs": [],
      "name": "year",
      "outputs": [
        {
          "internalType": "uint256",
          "name": "",
          "type": "uint256"
        }
      ],
      "stateMutability": "view",
      "type": "function"
    },
    {
      "inputs": [],
      "name": "getDetails",
      "outputs": [
        {
          "internalType": "string",
          "name": "",
          "type": "string"
        },
        {
          "internalType": "string",
          "name": "",
          "type": "string"
        },
        {
          "internalType": "uint256",
          "name": "",
          "type": "uint256"
        }
      ],
      "stateMutability": "view",
      "type": "function"
    }
  ],
  "bytecode": "0x60806040523480156200001157600080fd5b50604051620009473803806200094783398181016040528101906200003791906200030f565b83838382600090805190602001906200005292919062000087565b5081600190805190602001906200006b92919062000087565b5080600281905550505050806003819055505050505062000423565b8280546200009590620003ee565b90600052602060002090601f016020900481019282620000b9576000855562000105565b82601f10620000d457805160ff191683800117855562000105565b8280016001018555821562000105579182015b8281111562000104578251825591602001919060010190620000e7565b5b50905062000114919062000118565b5090565b5b808211156200013357600081600090555060010162000119565b5090565b6000604051905090565b600080fd5b600080fd5b600080fd5b600080fd5b6000601f19601f8301169050919050565b7f4e487b7100000000000000000000000000000000000000000000000000000000600052604160045260246000fd5b620001a08262000155565b810181811067ffffffffffffffff82111715620001c257620001c162000166565b5b80604052505050565b6000620001d762000137565b9050620001e5828262000195565b919050565b600067ffffffffffffffff82111562000208576200020762000166565b5b620002138262000155565b9050602081019050919050565b60005b838110156200024057808201518184015260208101905062000223565b8381111562000250576000848401525b50505050565b60006200026d6200026784620001ea565b620001cb565b9050828152602081018484840111156200028c576200028b62000150565b5b6200029984828562000220565b509392505050565b600082601f830112620002b957620002b86200014b565b5b8151620002cb84826020860162000256565b91505092915050565b6000819050919050565b620002e981620002d4565b8114620002f557600080fd5b50565b6000815190506200030981620002de565b92915050565b600080600080608085870312156200032c576200032b62000141565b5b600085015167ffffffffffffffff8111156200034d576200034c62000146565b5b6200035b87828801620002a1565b945050602085015167ffffffffffffffff8111156200037f576200037e62000146565b5b6200038d87828801620002a1565b9350506040620003a087828801620002f8565b9250506060620003b387828801620002f8565b91505092959194509250565b7f4e487b7100000000000000000000000000000000000000000000000000000000600052602260045260246000fd5b600060028204905060018216806200040757607f821691505b6020821081036200041d576200041c620003bf565b5b50919050565b61051480620004336000396000f3fe608060405234801561001057600080fd5b50600436106100575760003560e01c80630ad9d0521461005c578063a138438b1461007a578063c6dad08214610098578063f3269716146100b6578063fbbf93a0146100d4575b600080fd5b6100646100f4565b60405161007191906103e3565b60405180910390f35b610082610182565b60405161008f919061041e565b60405180910390f35b6100a0610188565b6040516100ad91906103e3565b60405180910390f35b6100be610216565b6040516100cb919061041e565b60405180910390f35b6100dc61021c565b6040516100eb93929190610439565b60405180910390f35b60018054610101906104ad565b80601f016020809104026020016040519081016040528092919081815260200182805461012d906104ad565b801561017a5780601f1061014f5761010080835404028352916020019161017a565b820191906000526020600020905b81548152906001019060200180831161015d57829003601f168201915b505050505081565b60035481565b60008054610195906104ad565b80601f01602080910402602001604051908101604052809291908181526020018280546101c1906104ad565b801561020e5780601f106101e35761010080835404028352916020019161020e565b820191906000526020600020905b8154815290600101906020018083116101f157829003601f168201915b505050505081565b60025481565b6060806000806001600254828054610233906104ad565b80601f016020809104026020016040519081016040528092919081815260200182805461025f906104ad565b80156102ac5780601f10610281576101008083540402835291602001916102ac565b820191906000526020600020905b81548152906001019060200180831161028f57829003601f168201915b505050505092508180546102bf906104ad565b80601f01602080910402602001604051908101604052809291908181526020018280546102eb906104ad565b80156103385780601f1061030d57610100808354040283529160200191610338565b820191906000526020600020905b81548152906001019060200180831161031b57829003601f168201915b50505050509150925092509250909192565b600081519050919050565b600082825260208201905092915050565b60005b83811015610384578082015181840152602081019050610369565b83811115610393576000848401525b50505050565b6000601f19601f8301169050919050565b60006103b58261034a565b6103bf8185610355565b93506103cf818560208601610366565b6103d881610399565b840191505092915050565b600060208201905081810360008301526103fd81846103aa565b905092915050565b6000819050919050565b61041881610405565b82525050565b6000602082019050610433600083018461040f565b92915050565b6000606082019050818103600083015261045381866103aa565b9050818103602083015261046781856103aa565b9050610476604083018461040f565b949350505050565b7f4e487b7100000000000000000000000000000000000000000000000000000000600052602260045260246000fd5b600060028204905060018216806104c557607f821691505b6020821081036104d8576104d761047e565b5b5091905056fea2646970667358221220af6b94a60c1818173ce9e5a6e1fe0b93079326b9538be555f0586e2f0970eaed64736f6c634300080d0033",
  "immutableReferences": {},
  "source": "// SPDX-License-Identifier: MIT\r\npragma solidity ^0.8.0;\r\n\r\n// Contrato base para um Veculo\r\ncontract Vehicle {\r\n    // Variveis de estado para armazenar informaes bsicas do veculo\r\n    string public make; // Marca do veculo\r\n    string public model; // Modelo do veculo\r\n    uint256 public year; // Ano de fabricao do veculo\r\n\r\n\r\n    constructor(string memory _make, string memory _model, uint256 _year) {\r\n        make = _make;\r\n        model = _model;\r\n        year = _year;\r\n    }\r\n\r\n    // Funo para obter os detalhes do veculo\r\n    function getDetails() public virtual view returns (string memory, string memory, uint256) {\r\n        return (make, model, year);\r\n    }\r\n}\r\n\r\n// Contrato para Carro, que herda de Vehicle\r\ncontract Car is Vehicle {\r\n    // Varivel de estado adicional para armazenar o nmero de portas do carro\r\n    uint256 public numDoors; // Nmero de portas do carro\r\n\r\n    constructor(string memory _make, string memory _model, uint256 _year, uint256 _numDoors)\r\n        Vehicle(_make, _model, _year)\r\n    {\r\n        numDoors = _numDoors;\r\n    }\r\n    \r\n    // Funo para obter os detalhes do carro\r\n    function getDetails() public view override returns (string memory, string memory, uint256) {\r\n        return (make, model, year); // Retorna os detalhes bsicos do veculo\r\n    }\r\n}\r\n\r\n// Contrato para Moto, que herda de Vehicle\r\ncontract Motorcycle is Vehicle {\r\n    // Varivel de estado adicional para armazenar o estilo da moto\r\n    string public style; // Estilo da moto\r\n\r\n    constructor(string memory _make, string memory _model, uint256 _year, string memory _style)\r\n        Vehicle(_make, _model, _year)\r\n    {\r\n        style = _style;\r\n    }\r\n    \r\n    // Funo para obter os detalhes da moto\r\n    function getDetails() public view override returns (string memory, string memory, uint256) {\r\n        return (make, style, year); // Retorna os detalhes com estilo especfico da moto\r\n    }\r\n}",
  "sourcePath": "Z:\\ADS\\thechaincademy-course\\contracts\\heranca.sol",
  "compiler": {
    "name": "solc",
    "version": "0.8.13+commit.abaa5c0e.Emscripten.clang"
  },
  "schemaVersion": "3.4.16",
  "updatedAt": "2024-03-17T22:22:38.497Z",
  "devdoc": {
    "kind": "dev",
    "methods": {},
    "version": 1
  },
  "userdoc": {
    "kind": "user",
    "methods": {},
    "version": 1
  }
}