{
  "contractName": "SimpleContract",
  "abi": [
    {
      "inputs": [],
      "stateMutability": "nonpayable",
      "type": "constructor"
    },
    {
      "inputs": [
        {
          "internalType": "address",
          "name": "caller",
          "type": "address"
        },
        {
          "internalType": "address",
          "name": "owner",
          "type": "address"
        }
      ],
      "name": "UnauthorizedAccess",
      "type": "error"
    },
    {
      "inputs": [],
      "name": "myAddress",
      "outputs": [
        {
          "internalType": "address",
          "name": "",
          "type": "address"
        }
      ],
      "stateMutability": "view",
      "type": "function"
    },
    {
      "inputs": [],
      "name": "myBool",
      "outputs": [
        {
          "internalType": "bool",
          "name": "",
          "type": "bool"
        }
      ],
      "stateMutability": "view",
      "type": "function"
    },
    {
      "inputs": [],
      "name": "myBytes32",
      "outputs": [
        {
          "internalType": "bytes32",
          "name": "",
          "type": "bytes32"
        }
      ],
      "stateMutability": "view",
      "type": "function"
    },
    {
      "inputs": [],
      "name": "myString",
      "outputs": [
        {
          "internalType": "string",
          "name": "",
          "type": "string"
        }
      ],
      "stateMutability": "view",
      "type": "function"
    },
    {
      "inputs": [],
      "name": "myUint",
      "outputs": [
        {
          "internalType": "uint256",
          "name": "",
          "type": "uint256"
        }
      ],
      "stateMutability": "view",
      "type": "function"
    },
    {
      "inputs": [
        {
          "internalType": "uint256",
          "name": "newValue",
          "type": "uint256"
        }
      ],
      "name": "setMyUint",
      "outputs": [],
      "stateMutability": "nonpayable",
      "type": "function"
    },
    {
      "inputs": [
        {
          "internalType": "string",
          "name": "newValue",
          "type": "string"
        }
      ],
      "name": "setMyString",
      "outputs": [],
      "stateMutability": "nonpayable",
      "type": "function"
    },
    {
      "inputs": [],
      "name": "getMyUint",
      "outputs": [
        {
          "internalType": "uint256",
          "name": "",
          "type": "uint256"
        }
      ],
      "stateMutability": "view",
      "type": "function"
    }
  ],
  "bytecode": "0x60806040523480156200001157600080fd5b5033600560006101000a81548173ffffffffffffffffffffffffffffffffffffffff021916908373ffffffffffffffffffffffffffffffffffffffff160217905550607b60008190555033600160006101000a81548173ffffffffffffffffffffffffffffffffffffffff021916908373ffffffffffffffffffffffffffffffffffffffff1602179055506040518060400160405280600d81526020017f48656c6c6f2c20776f726c64210000000000000000000000000000000000000081525060029080519060200190620000e992919062000138565b506001600360006101000a81548160ff021916908315150217905550604051602001620001169062000243565b60405160208183030381529060405280519060200120600481905550620002be565b828054620001469062000289565b90600052602060002090601f0160209004810192826200016a5760008555620001b6565b82601f106200018557805160ff1916838001178555620001b6565b82800160010185558215620001b6579182015b82811115620001b557825182559160200191906001019062000198565b5b509050620001c59190620001c9565b5090565b5b80821115620001e4576000816000905550600101620001ca565b5090565b600081905092915050565b7f736f6c6964697479000000000000000000000000000000000000000000000000600082015250565b60006200022b600883620001e8565b91506200023882620001f3565b600882019050919050565b600062000250826200021c565b9150819050919050565b7f4e487b7100000000000000000000000000000000000000000000000000000000600052602260045260246000fd5b60006002820490506001821680620002a257607f821691505b602082108103620002b857620002b76200025a565b5b50919050565b6109be80620002ce6000396000f3fe608060405234801561001057600080fd5b50600436106100885760003560e01c80634b3e7e0c1161005b5780634b3e7e0c146101055780636deecdbe146101235780638218056814610141578063e492fd841461015d57610088565b806306540f7e1461008d57806326b85ee1146100ab578063392aee47146100c9578063492bfa18146100e7575b600080fd5b610095610179565b6040516100a291906104e6565b60405180910390f35b6100b361017f565b6040516100c09190610542565b60405180910390f35b6100d16101a5565b6040516100de91906104e6565b60405180910390f35b6100ef6101ae565b6040516100fc91906105f6565b60405180910390f35b61010d61023c565b60405161011a9190610631565b60405180910390f35b61012b610242565b6040516101389190610667565b60405180910390f35b61015b600480360381019061015691906107cb565b610255565b005b61017760048036038101906101729190610840565b610325565b005b60005481565b600160009054906101000a900473ffffffffffffffffffffffffffffffffffffffff1681565b60008054905090565b600280546101bb9061089c565b80601f01602080910402602001604051908101604052809291908181526020018280546101e79061089c565b80156102345780601f1061020957610100808354040283529160200191610234565b820191906000526020600020905b81548152906001019060200180831161021757829003601f168201915b505050505081565b60045481565b600360009054906101000a900460ff1681565b600560009054906101000a900473ffffffffffffffffffffffffffffffffffffffff1673ffffffffffffffffffffffffffffffffffffffff163373ffffffffffffffffffffffffffffffffffffffff161461030b5733600560009054906101000a900473ffffffffffffffffffffffffffffffffffffffff166040517f4116c50f0000000000000000000000000000000000000000000000000000000081526004016103029291906108cd565b60405180910390fd5b806002908051906020019061032192919061042a565b5050565b600560009054906101000a900473ffffffffffffffffffffffffffffffffffffffff1673ffffffffffffffffffffffffffffffffffffffff163373ffffffffffffffffffffffffffffffffffffffff16146103db5733600560009054906101000a900473ffffffffffffffffffffffffffffffffffffffff166040517f4116c50f0000000000000000000000000000000000000000000000000000000081526004016103d29291906108cd565b60405180910390fd5b806000811161041f576040517f08c379a000000000000000000000000000000000000000000000000000000000815260040161041690610968565b60405180910390fd5b816000819055505050565b8280546104369061089c565b90600052602060002090601f016020900481019282610458576000855561049f565b82601f1061047157805160ff191683800117855561049f565b8280016001018555821561049f579182015b8281111561049e578251825591602001919060010190610483565b5b5090506104ac91906104b0565b5090565b5b808211156104c95760008160009055506001016104b1565b5090565b6000819050919050565b6104e0816104cd565b82525050565b60006020820190506104fb60008301846104d7565b92915050565b600073ffffffffffffffffffffffffffffffffffffffff82169050919050565b600061052c82610501565b9050919050565b61053c81610521565b82525050565b60006020820190506105576000830184610533565b92915050565b600081519050919050565b600082825260208201905092915050565b60005b8381101561059757808201518184015260208101905061057c565b838111156105a6576000848401525b50505050565b6000601f19601f8301169050919050565b60006105c88261055d565b6105d28185610568565b93506105e2818560208601610579565b6105eb816105ac565b840191505092915050565b6000602082019050818103600083015261061081846105bd565b905092915050565b6000819050919050565b61062b81610618565b82525050565b60006020820190506106466000830184610622565b92915050565b60008115159050919050565b6106618161064c565b82525050565b600060208201905061067c6000830184610658565b92915050565b6000604051905090565b600080fd5b600080fd5b600080fd5b600080fd5b7f4e487b7100000000000000000000000000000000000000000000000000000000600052604160045260246000fd5b6106d8826105ac565b810181811067ffffffffffffffff821117156106f7576106f66106a0565b5b80604052505050565b600061070a610682565b905061071682826106cf565b919050565b600067ffffffffffffffff821115610736576107356106a0565b5b61073f826105ac565b9050602081019050919050565b82818337600083830152505050565b600061076e6107698461071b565b610700565b90508281526020810184848401111561078a5761078961069b565b5b61079584828561074c565b509392505050565b600082601f8301126107b2576107b1610696565b5b81356107c284826020860161075b565b91505092915050565b6000602082840312156107e1576107e061068c565b5b600082013567ffffffffffffffff8111156107ff576107fe610691565b5b61080b8482850161079d565b91505092915050565b61081d816104cd565b811461082857600080fd5b50565b60008135905061083a81610814565b92915050565b6000602082840312156108565761085561068c565b5b60006108648482850161082b565b91505092915050565b7f4e487b7100000000000000000000000000000000000000000000000000000000600052602260045260246000fd5b600060028204905060018216806108b457607f821691505b6020821081036108c7576108c661086d565b5b50919050565b60006040820190506108e26000830185610533565b6108ef6020830184610533565b9392505050565b7f4f6e6c7920506f7369746976652056616c75657320696e20746869732066756e60008201527f6374696f6e000000000000000000000000000000000000000000000000000000602082015250565b6000610952602583610568565b915061095d826108f6565b604082019050919050565b6000602082019050818103600083015261098181610945565b905091905056fea2646970667358221220e157fadc655e97c1f14b9edced03815b4bdcad844038e28d414871f3bb0e634364736f6c634300080d0033",
  "immutableReferences": {},
  "source": "// SPDX-License-Identifier: MIT\npragma solidity ^0.8.0;\n\ncontract SimpleContract {\n    // Variveis de estado\n\n    //Nmero inteiro.\n    uint256 public myUint;\n    //Endereo Ethereum.\n    address public myAddress;\n    //String\n    string public myString;\n    //Booleano\n    bool public myBool;\n    //Valor de 32 bytes\n    bytes32 public myBytes32;\n\n    // Varivel de estado privada\n\n    // Proprietrio do contrato\n    address private owner;\n\n    // Erros\n    error UnauthorizedAccess(address caller, address owner);\n\n    // Modificador\n    modifier onlyOwner {\n         if (msg.sender != owner) {\n            revert UnauthorizedAccess(msg.sender, owner);\n        }\n        _;\n    }\n    \n    // Modificador\n    modifier onlyPositiveValues (uint256 value) {\n        require(value > 0, \"Only Positive Values in this function\");\n        _;\n    }\n\n    // Construtor\n    constructor() {\n        owner = msg.sender;\n        myUint = 123;\n        myAddress = msg.sender;\n        myString = \"Hello, world!\";\n        myBool = true;\n        myBytes32 = keccak256(abi.encodePacked(\"solidity\"));\n    }\n\n    // Funo pblica para atualizar myUint\n    function setMyUint(uint256 newValue) public onlyOwner onlyPositiveValues(newValue) {\n        myUint = newValue;\n    }\n\n    // Funo pblica para atualizar myString\n    function setMyString(string memory newValue) public onlyOwner {\n        myString = newValue;\n    }\n\n    // Funo pblica para retornar o valor de myUint\n    function getMyUint() public view returns (uint256) {\n        return myUint;\n    }\n}\n",
  "sourcePath": "Z:\\ADS\\thechaincademy-course\\contracts\\simpleContract.sol",
  "compiler": {
    "name": "solc",
    "version": "0.8.13+commit.abaa5c0e.Emscripten.clang"
  },
  "schemaVersion": "3.4.16",
  "updatedAt": "2024-03-21T23:03:19.795Z",
  "devdoc": {
    "kind": "dev",
    "methods": {},
    "version": 1
  },
  "userdoc": {
    "kind": "user",
    "methods": {},
    "version": 1
  }
}