{
  "contractName": "SimpleContract",
  "abi": [
    {
      "inputs": [],
      "stateMutability": "nonpayable",
      "type": "constructor"
    },
    {
      "inputs": [
        {
          "internalType": "address",
          "name": "caller",
          "type": "address"
        },
        {
          "internalType": "address",
          "name": "owner",
          "type": "address"
        }
      ],
      "name": "UnauthorizedAccess",
      "type": "error"
    },
    {
      "inputs": [],
      "name": "myAddress",
      "outputs": [
        {
          "internalType": "address",
          "name": "",
          "type": "address"
        }
      ],
      "stateMutability": "view",
      "type": "function",
      "constant": true
    },
    {
      "inputs": [],
      "name": "myBool",
      "outputs": [
        {
          "internalType": "bool",
          "name": "",
          "type": "bool"
        }
      ],
      "stateMutability": "view",
      "type": "function",
      "constant": true
    },
    {
      "inputs": [],
      "name": "myBytes32",
      "outputs": [
        {
          "internalType": "bytes32",
          "name": "",
          "type": "bytes32"
        }
      ],
      "stateMutability": "view",
      "type": "function",
      "constant": true
    },
    {
      "inputs": [],
      "name": "myString",
      "outputs": [
        {
          "internalType": "string",
          "name": "",
          "type": "string"
        }
      ],
      "stateMutability": "view",
      "type": "function",
      "constant": true
    },
    {
      "inputs": [],
      "name": "myUint",
      "outputs": [
        {
          "internalType": "uint256",
          "name": "",
          "type": "uint256"
        }
      ],
      "stateMutability": "view",
      "type": "function",
      "constant": true
    },
    {
      "inputs": [
        {
          "internalType": "uint256",
          "name": "newValue",
          "type": "uint256"
        }
      ],
      "name": "setMyUint",
      "outputs": [],
      "stateMutability": "nonpayable",
      "type": "function"
    },
    {
      "inputs": [
        {
          "internalType": "uint256",
          "name": "newValue",
          "type": "uint256"
        }
      ],
      "name": "setValue",
      "outputs": [],
      "stateMutability": "nonpayable",
      "type": "function"
    },
    {
      "inputs": [],
      "name": "getValue",
      "outputs": [
        {
          "internalType": "uint256",
          "name": "",
          "type": "uint256"
        }
      ],
      "stateMutability": "view",
      "type": "function",
      "constant": true
    },
    {
      "inputs": [
        {
          "internalType": "string",
          "name": "newValue",
          "type": "string"
        }
      ],
      "name": "setMyString",
      "outputs": [],
      "stateMutability": "nonpayable",
      "type": "function"
    },
    {
      "inputs": [],
      "name": "getMyUint",
      "outputs": [
        {
          "internalType": "uint256",
          "name": "",
          "type": "uint256"
        }
      ],
      "stateMutability": "view",
      "type": "function",
      "constant": true
    }
  ],
  "bytecode": "0x60806040523480156200001157600080fd5b5033600560006101000a81548173ffffffffffffffffffffffffffffffffffffffff021916908373ffffffffffffffffffffffffffffffffffffffff160217905550607b60008190555033600160006101000a81548173ffffffffffffffffffffffffffffffffffffffff021916908373ffffffffffffffffffffffffffffffffffffffff1602179055506040518060400160405280600d81526020017f48656c6c6f2c20776f726c64210000000000000000000000000000000000000081525060029080519060200190620000e992919062000138565b506001600360006101000a81548160ff021916908315150217905550604051602001620001169062000243565b60405160208183030381529060405280519060200120600481905550620002be565b828054620001469062000289565b90600052602060002090601f0160209004810192826200016a5760008555620001b6565b82601f106200018557805160ff1916838001178555620001b6565b82800160010185558215620001b6579182015b82811115620001b557825182559160200191906001019062000198565b5b509050620001c59190620001c9565b5090565b5b80821115620001e4576000816000905550600101620001ca565b5090565b600081905092915050565b7f736f6c6964697479000000000000000000000000000000000000000000000000600082015250565b60006200022b600883620001e8565b91506200023882620001f3565b600882019050919050565b600062000250826200021c565b9150819050919050565b7f4e487b7100000000000000000000000000000000000000000000000000000000600052602260045260246000fd5b60006002820490506001821680620002a257607f821691505b602082108103620002b857620002b76200025a565b5b50919050565b610a2180620002ce6000396000f3fe608060405234801561001057600080fd5b506004361061009e5760003560e01c80634b3e7e0c116100665780634b3e7e0c1461013957806355241077146101575780636deecdbe146101735780638218056814610191578063e492fd84146101ad5761009e565b806306540f7e146100a357806320965255146100c157806326b85ee1146100df578063392aee47146100fd578063492bfa181461011b575b600080fd5b6100ab6101c9565b6040516100b89190610549565b60405180910390f35b6100c96101cf565b6040516100d69190610549565b60405180910390f35b6100e76101d8565b6040516100f491906105a5565b60405180910390f35b6101056101fe565b6040516101129190610549565b60405180910390f35b610123610207565b6040516101309190610659565b60405180910390f35b610141610295565b60405161014e9190610694565b60405180910390f35b610171600480360381019061016c91906106ef565b61029b565b005b61017b6102a5565b6040516101889190610737565b60405180910390f35b6101ab60048036038101906101a69190610887565b6102b8565b005b6101c760048036038101906101c291906106ef565b610388565b005b60005481565b60008054905090565b600160009054906101000a900473ffffffffffffffffffffffffffffffffffffffff1681565b60008054905090565b60028054610214906108ff565b80601f0160208091040260200160405190810160405280929190818152602001828054610240906108ff565b801561028d5780601f106102625761010080835404028352916020019161028d565b820191906000526020600020905b81548152906001019060200180831161027057829003601f168201915b505050505081565b60045481565b8060008190555050565b600360009054906101000a900460ff1681565b600560009054906101000a900473ffffffffffffffffffffffffffffffffffffffff1673ffffffffffffffffffffffffffffffffffffffff163373ffffffffffffffffffffffffffffffffffffffff161461036e5733600560009054906101000a900473ffffffffffffffffffffffffffffffffffffffff166040517f4116c50f000000000000000000000000000000000000000000000000000000008152600401610365929190610930565b60405180910390fd5b806002908051906020019061038492919061048d565b5050565b600560009054906101000a900473ffffffffffffffffffffffffffffffffffffffff1673ffffffffffffffffffffffffffffffffffffffff163373ffffffffffffffffffffffffffffffffffffffff161461043e5733600560009054906101000a900473ffffffffffffffffffffffffffffffffffffffff166040517f4116c50f000000000000000000000000000000000000000000000000000000008152600401610435929190610930565b60405180910390fd5b8060008111610482576040517f08c379a0000000000000000000000000000000000000000000000000000000008152600401610479906109cb565b60405180910390fd5b816000819055505050565b828054610499906108ff565b90600052602060002090601f0160209004810192826104bb5760008555610502565b82601f106104d457805160ff1916838001178555610502565b82800160010185558215610502579182015b828111156105015782518255916020019190600101906104e6565b5b50905061050f9190610513565b5090565b5b8082111561052c576000816000905550600101610514565b5090565b6000819050919050565b61054381610530565b82525050565b600060208201905061055e600083018461053a565b92915050565b600073ffffffffffffffffffffffffffffffffffffffff82169050919050565b600061058f82610564565b9050919050565b61059f81610584565b82525050565b60006020820190506105ba6000830184610596565b92915050565b600081519050919050565b600082825260208201905092915050565b60005b838110156105fa5780820151818401526020810190506105df565b83811115610609576000848401525b50505050565b6000601f19601f8301169050919050565b600061062b826105c0565b61063581856105cb565b93506106458185602086016105dc565b61064e8161060f565b840191505092915050565b600060208201905081810360008301526106738184610620565b905092915050565b6000819050919050565b61068e8161067b565b82525050565b60006020820190506106a96000830184610685565b92915050565b6000604051905090565b600080fd5b600080fd5b6106cc81610530565b81146106d757600080fd5b50565b6000813590506106e9816106c3565b92915050565b600060208284031215610705576107046106b9565b5b6000610713848285016106da565b91505092915050565b60008115159050919050565b6107318161071c565b82525050565b600060208201905061074c6000830184610728565b92915050565b600080fd5b600080fd5b7f4e487b7100000000000000000000000000000000000000000000000000000000600052604160045260246000fd5b6107948261060f565b810181811067ffffffffffffffff821117156107b3576107b261075c565b5b80604052505050565b60006107c66106af565b90506107d2828261078b565b919050565b600067ffffffffffffffff8211156107f2576107f161075c565b5b6107fb8261060f565b9050602081019050919050565b82818337600083830152505050565b600061082a610825846107d7565b6107bc565b90508281526020810184848401111561084657610845610757565b5b610851848285610808565b509392505050565b600082601f83011261086e5761086d610752565b5b813561087e848260208601610817565b91505092915050565b60006020828403121561089d5761089c6106b9565b5b600082013567ffffffffffffffff8111156108bb576108ba6106be565b5b6108c784828501610859565b91505092915050565b7f4e487b7100000000000000000000000000000000000000000000000000000000600052602260045260246000fd5b6000600282049050600182168061091757607f821691505b60208210810361092a576109296108d0565b5b50919050565b60006040820190506109456000830185610596565b6109526020830184610596565b9392505050565b7f4f6e6c7920506f7369746976652056616c75657320696e20746869732066756e60008201527f6374696f6e000000000000000000000000000000000000000000000000000000602082015250565b60006109b56025836105cb565b91506109c082610959565b604082019050919050565b600060208201905081810360008301526109e4816109a8565b905091905056fea2646970667358221220a0bef5f99b93df8073bc53265b938c0dd1632343ff088cf24f767ae0e86cc1b464736f6c634300080d0033",
  "immutableReferences": {},
  "source": "// SPDX-License-Identifier: MIT\npragma solidity ^0.8.0;\n\ncontract SimpleContract {\n    // Variveis de estado\n\n    //Nmero inteiro.\n    uint256 public myUint;\n    //Endereo Ethereum.\n    address public myAddress;\n    //String\n    string public myString;\n    //Booleano\n    bool public myBool;\n    //Valor de 32 bytes\n    bytes32 public myBytes32;\n\n    // Varivel de estado privada\n\n    // Proprietrio do contrato\n    address private owner;\n\n    // Erros\n    error UnauthorizedAccess(address caller, address owner);\n\n    // Modificador\n    modifier onlyOwner {\n         if (msg.sender != owner) {\n            revert UnauthorizedAccess(msg.sender, owner);\n        }\n        _;\n    }\n    \n    // Modificador\n    modifier onlyPositiveValues (uint256 value) {\n        require(value > 0, \"Only Positive Values in this function\");\n        _;\n    }\n\n    // Construtor\n    constructor() {\n        owner = msg.sender;\n        myUint = 123;\n        myAddress = msg.sender;\n        myString = \"Hello, world!\";\n        myBool = true;\n        myBytes32 = keccak256(abi.encodePacked(\"solidity\"));\n    }\n\n    // Funo pblica para atualizar myUint\n    function setMyUint(uint256 newValue) public onlyOwner onlyPositiveValues(newValue) {\n        myUint = newValue;\n    }\n\n    // Funo pblica para atualizar myUint\n    function setValue(uint256 newValue) public{\n        myUint = newValue;\n    }\n\n    // Funo pblica para retornar o valor de myUint\n    function getValue() public view returns (uint256) {\n        return myUint;\n    }\n\n    // Funo pblica para atualizar myString\n    function setMyString(string memory newValue) public onlyOwner {\n        myString = newValue;\n    }\n\n    // Funo pblica para retornar o valor de myUint\n    function getMyUint() public view returns (uint256) {\n        return myUint;\n    }\n}\n",
  "sourcePath": "Z:\\ADS\\thechaincademy-course\\contracts\\simpleContract.sol",
  "compiler": {
    "name": "solc",
    "version": "0.8.13+commit.abaa5c0e.Emscripten.clang"
  },
  "schemaVersion": "3.4.16",
  "updatedAt": "2024-03-22T01:24:39.522Z",
  "networkType": "ethereum",
  "devdoc": {
    "kind": "dev",
    "methods": {},
    "version": 1
  },
  "userdoc": {
    "kind": "user",
    "methods": {},
    "version": 1
  }
}